{
  "_format": "hh-sol-artifact-1",
  "contractName": "SablierV2LockupLinear",
  "sourceName": "contracts/SablierV2LockupLinear.sol",
  "abi": [
    {
      "inputs": [
        {
          "internalType": "address",
          "name": "initialAdmin",
          "type": "address"
        },
        {
          "internalType": "contract ISablierV2NFTDescriptor",
          "name": "initialNFTDescriptor",
          "type": "address"
        }
      ],
      "stateMutability": "nonpayable",
      "type": "constructor"
    },
    {
      "inputs": [
        {
          "internalType": "address",
          "name": "target",
          "type": "address"
        }
      ],
      "name": "AddressEmptyCode",
      "type": "error"
    },
    {
      "inputs": [
        {
          "internalType": "address",
          "name": "account",
          "type": "address"
        }
      ],
      "name": "AddressInsufficientBalance",
      "type": "error"
    },
    {
      "inputs": [
        {
          "internalType": "address",
          "name": "admin",
          "type": "address"
        },
        {
          "internalType": "address",
          "name": "caller",
          "type": "address"
        }
      ],
      "name": "CallerNotAdmin",
      "type": "error"
    },
    {
      "inputs": [],
      "name": "DelegateCall",
      "type": "error"
    },
    {
      "inputs": [
        {
          "internalType": "address",
          "name": "sender",
          "type": "address"
        },
        {
          "internalType": "uint256",
          "name": "tokenId",
          "type": "uint256"
        },
        {
          "internalType": "address",
          "name": "owner",
          "type": "address"
        }
      ],
      "name": "ERC721IncorrectOwner",
      "type": "error"
    },
    {
      "inputs": [
        {
          "internalType": "address",
          "name": "operator",
          "type": "address"
        },
        {
          "internalType": "uint256",
          "name": "tokenId",
          "type": "uint256"
        }
      ],
      "name": "ERC721InsufficientApproval",
      "type": "error"
    },
    {
      "inputs": [
        {
          "internalType": "address",
          "name": "approver",
          "type": "address"
        }
      ],
      "name": "ERC721InvalidApprover",
      "type": "error"
    },
    {
      "inputs": [
        {
          "internalType": "address",
          "name": "operator",
          "type": "address"
        }
      ],
      "name": "ERC721InvalidOperator",
      "type": "error"
    },
    {
      "inputs": [
        {
          "internalType": "address",
          "name": "owner",
          "type": "address"
        }
      ],
      "name": "ERC721InvalidOwner",
      "type": "error"
    },
    {
      "inputs": [
        {
          "internalType": "address",
          "name": "receiver",
          "type": "address"
        }
      ],
      "name": "ERC721InvalidReceiver",
      "type": "error"
    },
    {
      "inputs": [
        {
          "internalType": "address",
          "name": "sender",
          "type": "address"
        }
      ],
      "name": "ERC721InvalidSender",
      "type": "error"
    },
    {
      "inputs": [
        {
          "internalType": "uint256",
          "name": "tokenId",
          "type": "uint256"
        }
      ],
      "name": "ERC721NonexistentToken",
      "type": "error"
    },
    {
      "inputs": [],
      "name": "FailedInnerCall",
      "type": "error"
    },
    {
      "inputs": [
        {
          "internalType": "uint256",
          "name": "x",
          "type": "uint256"
        },
        {
          "internalType": "uint256",
          "name": "y",
          "type": "uint256"
        }
      ],
      "name": "PRBMath_MulDiv18_Overflow",
      "type": "error"
    },
    {
      "inputs": [
        {
          "internalType": "uint256",
          "name": "x",
          "type": "uint256"
        },
        {
          "internalType": "uint256",
          "name": "y",
          "type": "uint256"
        },
        {
          "internalType": "uint256",
          "name": "denominator",
          "type": "uint256"
        }
      ],
      "name": "PRBMath_MulDiv_Overflow",
      "type": "error"
    },
    {
      "inputs": [
        {
          "internalType": "uint40",
          "name": "cliffTime",
          "type": "uint40"
        },
        {
          "internalType": "uint40",
          "name": "endTime",
          "type": "uint40"
        }
      ],
      "name": "SablierV2LockupLinear_CliffTimeNotLessThanEndTime",
      "type": "error"
    },
    {
      "inputs": [
        {
          "internalType": "uint40",
          "name": "startTime",
          "type": "uint40"
        },
        {
          "internalType": "uint40",
          "name": "cliffTime",
          "type": "uint40"
        }
      ],
      "name": "SablierV2LockupLinear_StartTimeNotLessThanCliffTime",
      "type": "error"
    },
    {
      "inputs": [
        {
          "internalType": "uint40",
          "name": "startTime",
          "type": "uint40"
        },
        {
          "internalType": "uint40",
          "name": "endTime",
          "type": "uint40"
        }
      ],
      "name": "SablierV2LockupLinear_StartTimeNotLessThanEndTime",
      "type": "error"
    },
    {
      "inputs": [
        {
          "internalType": "address",
          "name": "recipient",
          "type": "address"
        }
      ],
      "name": "SablierV2Lockup_AllowToHookUnsupportedInterface",
      "type": "error"
    },
    {
      "inputs": [
        {
          "internalType": "address",
          "name": "recipient",
          "type": "address"
        }
      ],
      "name": "SablierV2Lockup_AllowToHookZeroCodeSize",
      "type": "error"
    },
    {
      "inputs": [
        {
          "internalType": "UD60x18",
          "name": "brokerFee",
          "type": "uint256"
        },
        {
          "internalType": "UD60x18",
          "name": "maxBrokerFee",
          "type": "uint256"
        }
      ],
      "name": "SablierV2Lockup_BrokerFeeTooHigh",
      "type": "error"
    },
    {
      "inputs": [],
      "name": "SablierV2Lockup_DepositAmountZero",
      "type": "error"
    },
    {
      "inputs": [
        {
          "internalType": "uint40",
          "name": "blockTimestamp",
          "type": "uint40"
        },
        {
          "internalType": "uint40",
          "name": "endTime",
          "type": "uint40"
        }
      ],
      "name": "SablierV2Lockup_EndTimeNotInTheFuture",
      "type": "error"
    },
    {
      "inputs": [
        {
          "internalType": "address",
          "name": "recipient",
          "type": "address"
        }
      ],
      "name": "SablierV2Lockup_InvalidHookSelector",
      "type": "error"
    },
    {
      "inputs": [
        {
          "internalType": "uint256",
          "name": "tokenId",
          "type": "uint256"
        }
      ],
      "name": "SablierV2Lockup_NotTransferable",
      "type": "error"
    },
    {
      "inputs": [
        {
          "internalType": "uint256",
          "name": "streamId",
          "type": "uint256"
        }
      ],
      "name": "SablierV2Lockup_Null",
      "type": "error"
    },
    {
      "inputs": [
        {
          "internalType": "uint256",
          "name": "streamId",
          "type": "uint256"
        },
        {
          "internalType": "uint128",
          "name": "amount",
          "type": "uint128"
        },
        {
          "internalType": "uint128",
          "name": "withdrawableAmount",
          "type": "uint128"
        }
      ],
      "name": "SablierV2Lockup_Overdraw",
      "type": "error"
    },
    {
      "inputs": [],
      "name": "SablierV2Lockup_StartTimeZero",
      "type": "error"
    },
    {
      "inputs": [
        {
          "internalType": "uint256",
          "name": "streamId",
          "type": "uint256"
        }
      ],
      "name": "SablierV2Lockup_StreamCanceled",
      "type": "error"
    },
    {
      "inputs": [
        {
          "internalType": "uint256",
          "name": "streamId",
          "type": "uint256"
        }
      ],
      "name": "SablierV2Lockup_StreamDepleted",
      "type": "error"
    },
    {
      "inputs": [
        {
          "internalType": "uint256",
          "name": "streamId",
          "type": "uint256"
        }
      ],
      "name": "SablierV2Lockup_StreamNotCancelable",
      "type": "error"
    },
    {
      "inputs": [
        {
          "internalType": "uint256",
          "name": "streamId",
          "type": "uint256"
        }
      ],
      "name": "SablierV2Lockup_StreamNotDepleted",
      "type": "error"
    },
    {
      "inputs": [
        {
          "internalType": "uint256",
          "name": "streamId",
          "type": "uint256"
        }
      ],
      "name": "SablierV2Lockup_StreamSettled",
      "type": "error"
    },
    {
      "inputs": [
        {
          "internalType": "uint256",
          "name": "streamId",
          "type": "uint256"
        },
        {
          "internalType": "address",
          "name": "caller",
          "type": "address"
        }
      ],
      "name": "SablierV2Lockup_Unauthorized",
      "type": "error"
    },
    {
      "inputs": [
        {
          "internalType": "uint256",
          "name": "streamId",
          "type": "uint256"
        }
      ],
      "name": "SablierV2Lockup_WithdrawAmountZero",
      "type": "error"
    },
    {
      "inputs": [
        {
          "internalType": "uint256",
          "name": "streamIdsCount",
          "type": "uint256"
        },
        {
          "internalType": "uint256",
          "name": "amountsCount",
          "type": "uint256"
        }
      ],
      "name": "SablierV2Lockup_WithdrawArrayCountsNotEqual",
      "type": "error"
    },
    {
      "inputs": [
        {
          "internalType": "uint256",
          "name": "streamId",
          "type": "uint256"
        }
      ],
      "name": "SablierV2Lockup_WithdrawToZeroAddress",
      "type": "error"
    },
    {
      "inputs": [
        {
          "internalType": "uint256",
          "name": "streamId",
          "type": "uint256"
        },
        {
          "internalType": "address",
          "name": "caller",
          "type": "address"
        },
        {
          "internalType": "address",
          "name": "to",
          "type": "address"
        }
      ],
      "name": "SablierV2Lockup_WithdrawalAddressNotRecipient",
      "type": "error"
    },
    {
      "inputs": [
        {
          "internalType": "address",
          "name": "token",
          "type": "address"
        }
      ],
      "name": "SafeERC20FailedOperation",
      "type": "error"
    },
    {
      "anonymous": false,
      "inputs": [
        {
          "indexed": true,
          "internalType": "address",
          "name": "admin",
          "type": "address"
        },
        {
          "indexed": false,
          "internalType": "address",
          "name": "recipient",
          "type": "address"
        }
      ],
      "name": "AllowToHook",
      "type": "event"
    },
    {
      "anonymous": false,
      "inputs": [
        {
          "indexed": true,
          "internalType": "address",
          "name": "owner",
          "type": "address"
        },
        {
          "indexed": true,
          "internalType": "address",
          "name": "approved",
          "type": "address"
        },
        {
          "indexed": true,
          "internalType": "uint256",
          "name": "tokenId",
          "type": "uint256"
        }
      ],
      "name": "Approval",
      "type": "event"
    },
    {
      "anonymous": false,
      "inputs": [
        {
          "indexed": true,
          "internalType": "address",
          "name": "owner",
          "type": "address"
        },
        {
          "indexed": true,
          "internalType": "address",
          "name": "operator",
          "type": "address"
        },
        {
          "indexed": false,
          "internalType": "bool",
          "name": "approved",
          "type": "bool"
        }
      ],
      "name": "ApprovalForAll",
      "type": "event"
    },
    {
      "anonymous": false,
      "inputs": [
        {
          "indexed": false,
          "internalType": "uint256",
          "name": "_fromTokenId",
          "type": "uint256"
        },
        {
          "indexed": false,
          "internalType": "uint256",
          "name": "_toTokenId",
          "type": "uint256"
        }
      ],
      "name": "BatchMetadataUpdate",
      "type": "event"
    },
    {
      "anonymous": false,
      "inputs": [
        {
          "indexed": false,
          "internalType": "uint256",
          "name": "streamId",
          "type": "uint256"
        },
        {
          "indexed": true,
          "internalType": "address",
          "name": "sender",
          "type": "address"
        },
        {
          "indexed": true,
          "internalType": "address",
          "name": "recipient",
          "type": "address"
        },
        {
          "indexed": true,
          "internalType": "contract IERC20",
          "name": "asset",
          "type": "address"
        },
        {
          "indexed": false,
          "internalType": "uint128",
          "name": "senderAmount",
          "type": "uint128"
        },
        {
          "indexed": false,
          "internalType": "uint128",
          "name": "recipientAmount",
          "type": "uint128"
        }
      ],
      "name": "CancelLockupStream",
      "type": "event"
    },
    {
      "anonymous": false,
      "inputs": [
        {
          "indexed": false,
          "internalType": "uint256",
          "name": "streamId",
          "type": "uint256"
        },
        {
          "indexed": false,
          "internalType": "address",
          "name": "funder",
          "type": "address"
        },
        {
          "indexed": true,
          "internalType": "address",
          "name": "sender",
          "type": "address"
        },
        {
          "indexed": true,
          "internalType": "address",
          "name": "recipient",
          "type": "address"
        },
        {
          "components": [
            {
              "internalType": "uint128",
              "name": "deposit",
              "type": "uint128"
            },
            {
              "internalType": "uint128",
              "name": "brokerFee",
              "type": "uint128"
            }
          ],
          "indexed": false,
          "internalType": "struct Lockup.CreateAmounts",
          "name": "amounts",
          "type": "tuple"
        },
        {
          "indexed": true,
          "internalType": "contract IERC20",
          "name": "asset",
          "type": "address"
        },
        {
          "indexed": false,
          "internalType": "bool",
          "name": "cancelable",
          "type": "bool"
        },
        {
          "indexed": false,
          "internalType": "bool",
          "name": "transferable",
          "type": "bool"
        },
        {
          "components": [
            {
              "internalType": "uint40",
              "name": "start",
              "type": "uint40"
            },
            {
              "internalType": "uint40",
              "name": "cliff",
              "type": "uint40"
            },
            {
              "internalType": "uint40",
              "name": "end",
              "type": "uint40"
            }
          ],
          "indexed": false,
          "internalType": "struct LockupLinear.Timestamps",
          "name": "timestamps",
          "type": "tuple"
        },
        {
          "indexed": false,
          "internalType": "address",
          "name": "broker",
          "type": "address"
        }
      ],
      "name": "CreateLockupLinearStream",
      "type": "event"
    },
    {
      "anonymous": false,
      "inputs": [
        {
          "indexed": false,
          "internalType": "uint256",
          "name": "_tokenId",
          "type": "uint256"
        }
      ],
      "name": "MetadataUpdate",
      "type": "event"
    },
    {
      "anonymous": false,
      "inputs": [
        {
          "indexed": true,
          "internalType": "uint256",
          "name": "streamId",
          "type": "uint256"
        }
      ],
      "name": "RenounceLockupStream",
      "type": "event"
    },
    {
      "anonymous": false,
      "inputs": [
        {
          "indexed": true,
          "internalType": "address",
          "name": "admin",
          "type": "address"
        },
        {
          "indexed": false,
          "internalType": "contract ISablierV2NFTDescriptor",
          "name": "oldNFTDescriptor",
          "type": "address"
        },
        {
          "indexed": false,
          "internalType": "contract ISablierV2NFTDescriptor",
          "name": "newNFTDescriptor",
          "type": "address"
        }
      ],
      "name": "SetNFTDescriptor",
      "type": "event"
    },
    {
      "anonymous": false,
      "inputs": [
        {
          "indexed": true,
          "internalType": "address",
          "name": "from",
          "type": "address"
        },
        {
          "indexed": true,
          "internalType": "address",
          "name": "to",
          "type": "address"
        },
        {
          "indexed": true,
          "internalType": "uint256",
          "name": "tokenId",
          "type": "uint256"
        }
      ],
      "name": "Transfer",
      "type": "event"
    },
    {
      "anonymous": false,
      "inputs": [
        {
          "indexed": true,
          "internalType": "address",
          "name": "oldAdmin",
          "type": "address"
        },
        {
          "indexed": true,
          "internalType": "address",
          "name": "newAdmin",
          "type": "address"
        }
      ],
      "name": "TransferAdmin",
      "type": "event"
    },
    {
      "anonymous": false,
      "inputs": [
        {
          "indexed": true,
          "internalType": "uint256",
          "name": "streamId",
          "type": "uint256"
        },
        {
          "indexed": true,
          "internalType": "address",
          "name": "to",
          "type": "address"
        },
        {
          "indexed": true,
          "internalType": "contract IERC20",
          "name": "asset",
          "type": "address"
        },
        {
          "indexed": false,
          "internalType": "uint128",
          "name": "amount",
          "type": "uint128"
        }
      ],
      "name": "WithdrawFromLockupStream",
      "type": "event"
    },
    {
      "inputs": [],
      "name": "MAX_BROKER_FEE",
      "outputs": [
        {
          "internalType": "UD60x18",
          "name": "",
          "type": "uint256"
        }
      ],
      "stateMutability": "view",
      "type": "function"
    },
    {
      "inputs": [],
      "name": "admin",
      "outputs": [
        {
          "internalType": "address",
          "name": "",
          "type": "address"
        }
      ],
      "stateMutability": "view",
      "type": "function"
    },
    {
      "inputs": [
        {
          "internalType": "address",
          "name": "recipient",
          "type": "address"
        }
      ],
      "name": "allowToHook",
      "outputs": [],
      "stateMutability": "nonpayable",
      "type": "function"
    },
    {
      "inputs": [
        {
          "internalType": "address",
          "name": "to",
          "type": "address"
        },
        {
          "internalType": "uint256",
          "name": "tokenId",
          "type": "uint256"
        }
      ],
      "name": "approve",
      "outputs": [],
      "stateMutability": "nonpayable",
      "type": "function"
    },
    {
      "inputs": [
        {
          "internalType": "address",
          "name": "owner",
          "type": "address"
        }
      ],
      "name": "balanceOf",
      "outputs": [
        {
          "internalType": "uint256",
          "name": "",
          "type": "uint256"
        }
      ],
      "stateMutability": "view",
      "type": "function"
    },
    {
      "inputs": [
        {
          "internalType": "uint256",
          "name": "streamId",
          "type": "uint256"
        }
      ],
      "name": "burn",
      "outputs": [],
      "stateMutability": "nonpayable",
      "type": "function"
    },
    {
      "inputs": [
        {
          "internalType": "uint256",
          "name": "streamId",
          "type": "uint256"
        }
      ],
      "name": "cancel",
      "outputs": [],
      "stateMutability": "nonpayable",
      "type": "function"
    },
    {
      "inputs": [
        {
          "internalType": "uint256[]",
          "name": "streamIds",
          "type": "uint256[]"
        }
      ],
      "name": "cancelMultiple",
      "outputs": [],
      "stateMutability": "nonpayable",
      "type": "function"
    },
    {
      "inputs": [
        {
          "components": [
            {
              "internalType": "address",
              "name": "sender",
              "type": "address"
            },
            {
              "internalType": "address",
              "name": "recipient",
              "type": "address"
            },
            {
              "internalType": "uint128",
              "name": "totalAmount",
              "type": "uint128"
            },
            {
              "internalType": "contract IERC20",
              "name": "asset",
              "type": "address"
            },
            {
              "internalType": "bool",
              "name": "cancelable",
              "type": "bool"
            },
            {
              "internalType": "bool",
              "name": "transferable",
              "type": "bool"
            },
            {
              "components": [
                {
                  "internalType": "uint40",
                  "name": "cliff",
                  "type": "uint40"
                },
                {
                  "internalType": "uint40",
                  "name": "total",
                  "type": "uint40"
                }
              ],
              "internalType": "struct LockupLinear.Durations",
              "name": "durations",
              "type": "tuple"
            },
            {
              "components": [
                {
                  "internalType": "address",
                  "name": "account",
                  "type": "address"
                },
                {
                  "internalType": "UD60x18",
                  "name": "fee",
                  "type": "uint256"
                }
              ],
              "internalType": "struct Broker",
              "name": "broker",
              "type": "tuple"
            }
          ],
          "internalType": "struct LockupLinear.CreateWithDurations",
          "name": "params",
          "type": "tuple"
        }
      ],
      "name": "createWithDurations",
      "outputs": [
        {
          "internalType": "uint256",
          "name": "streamId",
          "type": "uint256"
        }
      ],
      "stateMutability": "nonpayable",
      "type": "function"
    },
    {
      "inputs": [
        {
          "components": [
            {
              "internalType": "address",
              "name": "sender",
              "type": "address"
            },
            {
              "internalType": "address",
              "name": "recipient",
              "type": "address"
            },
            {
              "internalType": "uint128",
              "name": "totalAmount",
              "type": "uint128"
            },
            {
              "internalType": "contract IERC20",
              "name": "asset",
              "type": "address"
            },
            {
              "internalType": "bool",
              "name": "cancelable",
              "type": "bool"
            },
            {
              "internalType": "bool",
              "name": "transferable",
              "type": "bool"
            },
            {
              "components": [
                {
                  "internalType": "uint40",
                  "name": "start",
                  "type": "uint40"
                },
                {
                  "internalType": "uint40",
                  "name": "cliff",
                  "type": "uint40"
                },
                {
                  "internalType": "uint40",
                  "name": "end",
                  "type": "uint40"
                }
              ],
              "internalType": "struct LockupLinear.Timestamps",
              "name": "timestamps",
              "type": "tuple"
            },
            {
              "components": [
                {
                  "internalType": "address",
                  "name": "account",
                  "type": "address"
                },
                {
                  "internalType": "UD60x18",
                  "name": "fee",
                  "type": "uint256"
                }
              ],
              "internalType": "struct Broker",
              "name": "broker",
              "type": "tuple"
            }
          ],
          "internalType": "struct LockupLinear.CreateWithTimestamps",
          "name": "params",
          "type": "tuple"
        }
      ],
      "name": "createWithTimestamps",
      "outputs": [
        {
          "internalType": "uint256",
          "name": "streamId",
          "type": "uint256"
        }
      ],
      "stateMutability": "nonpayable",
      "type": "function"
    },
    {
      "inputs": [
        {
          "internalType": "uint256",
          "name": "tokenId",
          "type": "uint256"
        }
      ],
      "name": "getApproved",
      "outputs": [
        {
          "internalType": "address",
          "name": "",
          "type": "address"
        }
      ],
      "stateMutability": "view",
      "type": "function"
    },
    {
      "inputs": [
        {
          "internalType": "uint256",
          "name": "streamId",
          "type": "uint256"
        }
      ],
      "name": "getAsset",
      "outputs": [
        {
          "internalType": "contract IERC20",
          "name": "asset",
          "type": "address"
        }
      ],
      "stateMutability": "view",
      "type": "function"
    },
    {
      "inputs": [
        {
          "internalType": "uint256",
          "name": "streamId",
          "type": "uint256"
        }
      ],
      "name": "getCliffTime",
      "outputs": [
        {
          "internalType": "uint40",
          "name": "cliffTime",
          "type": "uint40"
        }
      ],
      "stateMutability": "view",
      "type": "function"
    },
    {
      "inputs": [
        {
          "internalType": "uint256",
          "name": "streamId",
          "type": "uint256"
        }
      ],
      "name": "getDepositedAmount",
      "outputs": [
        {
          "internalType": "uint128",
          "name": "depositedAmount",
          "type": "uint128"
        }
      ],
      "stateMutability": "view",
      "type": "function"
    },
    {
      "inputs": [
        {
          "internalType": "uint256",
          "name": "streamId",
          "type": "uint256"
        }
      ],
      "name": "getEndTime",
      "outputs": [
        {
          "internalType": "uint40",
          "name": "endTime",
          "type": "uint40"
        }
      ],
      "stateMutability": "view",
      "type": "function"
    },
    {
      "inputs": [
        {
          "internalType": "uint256",
          "name": "streamId",
          "type": "uint256"
        }
      ],
      "name": "getRecipient",
      "outputs": [
        {
          "internalType": "address",
          "name": "recipient",
          "type": "address"
        }
      ],
      "stateMutability": "view",
      "type": "function"
    },
    {
      "inputs": [
        {
          "internalType": "uint256",
          "name": "streamId",
          "type": "uint256"
        }
      ],
      "name": "getRefundedAmount",
      "outputs": [
        {
          "internalType": "uint128",
          "name": "refundedAmount",
          "type": "uint128"
        }
      ],
      "stateMutability": "view",
      "type": "function"
    },
    {
      "inputs": [
        {
          "internalType": "uint256",
          "name": "streamId",
          "type": "uint256"
        }
      ],
      "name": "getSender",
      "outputs": [
        {
          "internalType": "address",
          "name": "sender",
          "type": "address"
        }
      ],
      "stateMutability": "view",
      "type": "function"
    },
    {
      "inputs": [
        {
          "internalType": "uint256",
          "name": "streamId",
          "type": "uint256"
        }
      ],
      "name": "getStartTime",
      "outputs": [
        {
          "internalType": "uint40",
          "name": "startTime",
          "type": "uint40"
        }
      ],
      "stateMutability": "view",
      "type": "function"
    },
    {
      "inputs": [
        {
          "internalType": "uint256",
          "name": "streamId",
          "type": "uint256"
        }
      ],
      "name": "getStream",
      "outputs": [
        {
          "components": [
            {
              "internalType": "address",
              "name": "sender",
              "type": "address"
            },
            {
              "internalType": "address",
              "name": "recipient",
              "type": "address"
            },
            {
              "internalType": "uint40",
              "name": "startTime",
              "type": "uint40"
            },
            {
              "internalType": "bool",
              "name": "isCancelable",
              "type": "bool"
            },
            {
              "internalType": "bool",
              "name": "wasCanceled",
              "type": "bool"
            },
            {
              "internalType": "contract IERC20",
              "name": "asset",
              "type": "address"
            },
            {
              "internalType": "uint40",
              "name": "endTime",
              "type": "uint40"
            },
            {
              "internalType": "bool",
              "name": "isDepleted",
              "type": "bool"
            },
            {
              "internalType": "bool",
              "name": "isStream",
              "type": "bool"
            },
            {
              "internalType": "bool",
              "name": "isTransferable",
              "type": "bool"
            },
            {
              "components": [
                {
                  "internalType": "uint128",
                  "name": "deposited",
                  "type": "uint128"
                },
                {
                  "internalType": "uint128",
                  "name": "withdrawn",
                  "type": "uint128"
                },
                {
                  "internalType": "uint128",
                  "name": "refunded",
                  "type": "uint128"
                }
              ],
              "internalType": "struct Lockup.Amounts",
              "name": "amounts",
              "type": "tuple"
            },
            {
              "internalType": "uint40",
              "name": "cliffTime",
              "type": "uint40"
            }
          ],
          "internalType": "struct LockupLinear.StreamLL",
          "name": "stream",
          "type": "tuple"
        }
      ],
      "stateMutability": "view",
      "type": "function"
    },
    {
      "inputs": [
        {
          "internalType": "uint256",
          "name": "streamId",
          "type": "uint256"
        }
      ],
      "name": "getTimestamps",
      "outputs": [
        {
          "components": [
            {
              "internalType": "uint40",
              "name": "start",
              "type": "uint40"
            },
            {
              "internalType": "uint40",
              "name": "cliff",
              "type": "uint40"
            },
            {
              "internalType": "uint40",
              "name": "end",
              "type": "uint40"
            }
          ],
          "internalType": "struct LockupLinear.Timestamps",
          "name": "timestamps",
          "type": "tuple"
        }
      ],
      "stateMutability": "view",
      "type": "function"
    },
    {
      "inputs": [
        {
          "internalType": "uint256",
          "name": "streamId",
          "type": "uint256"
        }
      ],
      "name": "getWithdrawnAmount",
      "outputs": [
        {
          "internalType": "uint128",
          "name": "withdrawnAmount",
          "type": "uint128"
        }
      ],
      "stateMutability": "view",
      "type": "function"
    },
    {
      "inputs": [
        {
          "internalType": "address",
          "name": "recipient",
          "type": "address"
        }
      ],
      "name": "isAllowedToHook",
      "outputs": [
        {
          "internalType": "bool",
          "name": "result",
          "type": "bool"
        }
      ],
      "stateMutability": "view",
      "type": "function"
    },
    {
      "inputs": [
        {
          "internalType": "address",
          "name": "owner",
          "type": "address"
        },
        {
          "internalType": "address",
          "name": "operator",
          "type": "address"
        }
      ],
      "name": "isApprovedForAll",
      "outputs": [
        {
          "internalType": "bool",
          "name": "",
          "type": "bool"
        }
      ],
      "stateMutability": "view",
      "type": "function"
    },
    {
      "inputs": [
        {
          "internalType": "uint256",
          "name": "streamId",
          "type": "uint256"
        }
      ],
      "name": "isCancelable",
      "outputs": [
        {
          "internalType": "bool",
          "name": "result",
          "type": "bool"
        }
      ],
      "stateMutability": "view",
      "type": "function"
    },
    {
      "inputs": [
        {
          "internalType": "uint256",
          "name": "streamId",
          "type": "uint256"
        }
      ],
      "name": "isCold",
      "outputs": [
        {
          "internalType": "bool",
          "name": "result",
          "type": "bool"
        }
      ],
      "stateMutability": "view",
      "type": "function"
    },
    {
      "inputs": [
        {
          "internalType": "uint256",
          "name": "streamId",
          "type": "uint256"
        }
      ],
      "name": "isDepleted",
      "outputs": [
        {
          "internalType": "bool",
          "name": "result",
          "type": "bool"
        }
      ],
      "stateMutability": "view",
      "type": "function"
    },
    {
      "inputs": [
        {
          "internalType": "uint256",
          "name": "streamId",
          "type": "uint256"
        }
      ],
      "name": "isStream",
      "outputs": [
        {
          "internalType": "bool",
          "name": "result",
          "type": "bool"
        }
      ],
      "stateMutability": "view",
      "type": "function"
    },
    {
      "inputs": [
        {
          "internalType": "uint256",
          "name": "streamId",
          "type": "uint256"
        }
      ],
      "name": "isTransferable",
      "outputs": [
        {
          "internalType": "bool",
          "name": "result",
          "type": "bool"
        }
      ],
      "stateMutability": "view",
      "type": "function"
    },
    {
      "inputs": [
        {
          "internalType": "uint256",
          "name": "streamId",
          "type": "uint256"
        }
      ],
      "name": "isWarm",
      "outputs": [
        {
          "internalType": "bool",
          "name": "result",
          "type": "bool"
        }
      ],
      "stateMutability": "view",
      "type": "function"
    },
    {
      "inputs": [],
      "name": "name",
      "outputs": [
        {
          "internalType": "string",
          "name": "",
          "type": "string"
        }
      ],
      "stateMutability": "view",
      "type": "function"
    },
    {
      "inputs": [],
      "name": "nextStreamId",
      "outputs": [
        {
          "internalType": "uint256",
          "name": "",
          "type": "uint256"
        }
      ],
      "stateMutability": "view",
      "type": "function"
    },
    {
      "inputs": [],
      "name": "nftDescriptor",
      "outputs": [
        {
          "internalType": "contract ISablierV2NFTDescriptor",
          "name": "",
          "type": "address"
        }
      ],
      "stateMutability": "view",
      "type": "function"
    },
    {
      "inputs": [
        {
          "internalType": "uint256",
          "name": "tokenId",
          "type": "uint256"
        }
      ],
      "name": "ownerOf",
      "outputs": [
        {
          "internalType": "address",
          "name": "",
          "type": "address"
        }
      ],
      "stateMutability": "view",
      "type": "function"
    },
    {
      "inputs": [
        {
          "internalType": "uint256",
          "name": "streamId",
          "type": "uint256"
        }
      ],
      "name": "refundableAmountOf",
      "outputs": [
        {
          "internalType": "uint128",
          "name": "refundableAmount",
          "type": "uint128"
        }
      ],
      "stateMutability": "view",
      "type": "function"
    },
    {
      "inputs": [
        {
          "internalType": "uint256",
          "name": "streamId",
          "type": "uint256"
        }
      ],
      "name": "renounce",
      "outputs": [],
      "stateMutability": "nonpayable",
      "type": "function"
    },
    {
      "inputs": [
        {
          "internalType": "address",
          "name": "from",
          "type": "address"
        },
        {
          "internalType": "address",
          "name": "to",
          "type": "address"
        },
        {
          "internalType": "uint256",
          "name": "tokenId",
          "type": "uint256"
        }
      ],
      "name": "safeTransferFrom",
      "outputs": [],
      "stateMutability": "nonpayable",
      "type": "function"
    },
    {
      "inputs": [
        {
          "internalType": "address",
          "name": "from",
          "type": "address"
        },
        {
          "internalType": "address",
          "name": "to",
          "type": "address"
        },
        {
          "internalType": "uint256",
          "name": "tokenId",
          "type": "uint256"
        },
        {
          "internalType": "bytes",
          "name": "data",
          "type": "bytes"
        }
      ],
      "name": "safeTransferFrom",
      "outputs": [],
      "stateMutability": "nonpayable",
      "type": "function"
    },
    {
      "inputs": [
        {
          "internalType": "address",
          "name": "operator",
          "type": "address"
        },
        {
          "internalType": "bool",
          "name": "approved",
          "type": "bool"
        }
      ],
      "name": "setApprovalForAll",
      "outputs": [],
      "stateMutability": "nonpayable",
      "type": "function"
    },
    {
      "inputs": [
        {
          "internalType": "contract ISablierV2NFTDescriptor",
          "name": "newNFTDescriptor",
          "type": "address"
        }
      ],
      "name": "setNFTDescriptor",
      "outputs": [],
      "stateMutability": "nonpayable",
      "type": "function"
    },
    {
      "inputs": [
        {
          "internalType": "uint256",
          "name": "streamId",
          "type": "uint256"
        }
      ],
      "name": "statusOf",
      "outputs": [
        {
          "internalType": "enum Lockup.Status",
          "name": "status",
          "type": "uint8"
        }
      ],
      "stateMutability": "view",
      "type": "function"
    },
    {
      "inputs": [
        {
          "internalType": "uint256",
          "name": "streamId",
          "type": "uint256"
        }
      ],
      "name": "streamedAmountOf",
      "outputs": [
        {
          "internalType": "uint128",
          "name": "streamedAmount",
          "type": "uint128"
        }
      ],
      "stateMutability": "view",
      "type": "function"
    },
    {
      "inputs": [
        {
          "internalType": "bytes4",
          "name": "interfaceId",
          "type": "bytes4"
        }
      ],
      "name": "supportsInterface",
      "outputs": [
        {
          "internalType": "bool",
          "name": "",
          "type": "bool"
        }
      ],
      "stateMutability": "view",
      "type": "function"
    },
    {
      "inputs": [],
      "name": "symbol",
      "outputs": [
        {
          "internalType": "string",
          "name": "",
          "type": "string"
        }
      ],
      "stateMutability": "view",
      "type": "function"
    },
    {
      "inputs": [
        {
          "internalType": "uint256",
          "name": "streamId",
          "type": "uint256"
        }
      ],
      "name": "tokenURI",
      "outputs": [
        {
          "internalType": "string",
          "name": "uri",
          "type": "string"
        }
      ],
      "stateMutability": "view",
      "type": "function"
    },
    {
      "inputs": [
        {
          "internalType": "address",
          "name": "newAdmin",
          "type": "address"
        }
      ],
      "name": "transferAdmin",
      "outputs": [],
      "stateMutability": "nonpayable",
      "type": "function"
    },
    {
      "inputs": [
        {
          "internalType": "address",
          "name": "from",
          "type": "address"
        },
        {
          "internalType": "address",
          "name": "to",
          "type": "address"
        },
        {
          "internalType": "uint256",
          "name": "tokenId",
          "type": "uint256"
        }
      ],
      "name": "transferFrom",
      "outputs": [],
      "stateMutability": "nonpayable",
      "type": "function"
    },
    {
      "inputs": [
        {
          "internalType": "uint256",
          "name": "streamId",
          "type": "uint256"
        }
      ],
      "name": "wasCanceled",
      "outputs": [
        {
          "internalType": "bool",
          "name": "result",
          "type": "bool"
        }
      ],
      "stateMutability": "view",
      "type": "function"
    },
    {
      "inputs": [
        {
          "internalType": "uint256",
          "name": "streamId",
          "type": "uint256"
        },
        {
          "internalType": "address",
          "name": "to",
          "type": "address"
        },
        {
          "internalType": "uint128",
          "name": "amount",
          "type": "uint128"
        }
      ],
      "name": "withdraw",
      "outputs": [],
      "stateMutability": "nonpayable",
      "type": "function"
    },
    {
      "inputs": [
        {
          "internalType": "uint256",
          "name": "streamId",
          "type": "uint256"
        },
        {
          "internalType": "address",
          "name": "to",
          "type": "address"
        }
      ],
      "name": "withdrawMax",
      "outputs": [
        {
          "internalType": "uint128",
          "name": "withdrawnAmount",
          "type": "uint128"
        }
      ],
      "stateMutability": "nonpayable",
      "type": "function"
    },
    {
      "inputs": [
        {
          "internalType": "uint256",
          "name": "streamId",
          "type": "uint256"
        },
        {
          "internalType": "address",
          "name": "newRecipient",
          "type": "address"
        }
      ],
      "name": "withdrawMaxAndTransfer",
      "outputs": [
        {
          "internalType": "uint128",
          "name": "withdrawnAmount",
          "type": "uint128"
        }
      ],
      "stateMutability": "nonpayable",
      "type": "function"
    },
    {
      "inputs": [
        {
          "internalType": "uint256[]",
          "name": "streamIds",
          "type": "uint256[]"
        },
        {
          "internalType": "uint128[]",
          "name": "amounts",
          "type": "uint128[]"
        }
      ],
      "name": "withdrawMultiple",
      "outputs": [],
      "stateMutability": "nonpayable",
      "type": "function"
    },
    {
      "inputs": [
        {
          "internalType": "uint256",
          "name": "streamId",
          "type": "uint256"
        }
      ],
      "name": "withdrawableAmountOf",
      "outputs": [
        {
          "internalType": "uint128",
          "name": "withdrawableAmount",
          "type": "uint128"
        }
      ],
      "stateMutability": "view",
      "type": "function"
    }
  ],
  "bytecode": "0x60a0604052346100345761001a6100146100f8565b906101ef565b604051614e966104fb8239608051816132190152614e9690f35b600080fd5b634e487b7160e01b600052604160045260246000fd5b90601f01601f191681019081106001600160401b0382111761007057604052565b610039565b9061008961008260405190565b928361004f565b565b6001600160a01b031690565b90565b6001600160a01b0381165b0361003457565b905051906100898261009a565b6001600160a01b0381166100a5565b90505190610089826100b9565b9190604083820312610034576100979060206100f182866100ac565b94016100c8565b6101166153918038038061010b81610075565b9283398101906100d5565b9091565b6001600160401b03811161007057602090601f01601f19160190565b906101486101438361011a565b610075565b918252565b610157601c610136565b7f5361626c696572205632204c6f636b7570204c696e656172204e465400000000602082015290565b61009761014d565b6101926011610136565b7029a0a116ab1916a627a1a5aaa816a624a760791b602082015290565b610097610188565b6100976100976100979290565b90600019905b9181191691161790565b906101e46100976101eb926101b7565b82546101c4565b9055565b61020a916101fb610180565b906102046101af565b92610280565b61008961021760016101b7565b60076101d4565b906001600160a01b03906101ca565b6100979061008b906001600160a01b031682565b6100979061022d565b61009790610241565b906102636100976101eb9261024a565b825461021e565b61008b6100976100979290565b6100979061026a565b9261028e906102a0936104ad565b610299836000610253565b6008610253565b6102bb6102b56102b06000610277565b61024a565b9161024a565b907fbdd36143ee09de60bdefca70680e0f71189b2ed7acee364b53917ad433fdaf806102e660405190565b600090a3565b634e487b7160e01b600052602260045260246000fd5b9060016002830492168015610322575b602083101461031d57565b6102ec565b91607f1691610312565b9160001960089290920291821b911b6101ca565b91906103516100976101eb936101b7565b90835461032c565b61008991600091610340565b818110610370575050565b8061037e6000600193610359565b01610365565b9190601f811161039357505050565b6103a561008993600052602060002090565b906020601f8401819004830193106103c7575b6020601f909101040190610365565b90915081906103b8565b906103da815190565b906001600160401b038211610070576103fd826103f78554610302565b85610384565b602090601f8311600114610438576101eb92916000918361042d575b5050600019600883021c1916906002021790565b015190503880610419565b601f1983169161044d85600052602060002090565b9260005b81811061048b57509160029391856001969410610472575b50505002019055565b01516000196008601f8516021c19169055388080610469565b91936020600181928787015181550195019201610451565b90610089916103d1565b906104c4610089926104bd6104cb565b60016104a3565b60026104a3565b6100896100896100896100896100896100896100896100896100896100896100896104f53061024a565b60805256fe610180604052600436101561001357600080fd5b60003560e01c806301ffc9a71461035e578063027b67441461035957806306fdde0314610354578063081812fc1461034f578063095ea7b31461034a5780631400ecec146103455780631c1cdd4c146103405780631e99d5691461033b57806323b872dd14610336578063303acc8514610331578063406887cb1461032c57806340e58ee514610327578063425d30dd1461032257806342842e0e1461031d57806342966c681461031857806344267570146103135780634857501f1461030e5780634869e12d146103095780634cc55e111461030457806353b15727146102ff57806357404b12146102fa5780636352211e146102f55780636d0cee75146102f557806370a08231146102f057806375829def146102eb578063780a82c8146102e65780637cad6cd1146102e15780637de6b1db146102dc5780638659c270146102d7578063894e9a0d146102d25780638f69b993146102cd5780639067b677146102c857806395d89b41146102c3578063a22cb465146102be578063a80fc071146102b9578063ab167ccc146102b4578063ad35efd4146102af578063b2564569146102aa578063b88d4fde146102a5578063b8a3be66146102a0578063b971302a1461029b578063bc2be1be14610296578063c156a11d14610291578063c87b56dd1461028c578063d4dbd20b14610287578063d511609f14610282578063d975dfed1461027d578063e985e9c514610278578063ea5ead1914610273578063eac8f5b81461026e578063f590c17614610269578063f851a440146102645763fdd46d600361037657611006565b610f9f565b610f79565b610f5e565b610f42565b610f26565b610eef565b610ed4565b610eb9565b610e9e565b610e82565b610e44565b610e29565b610e0e565b610df2565b610cc3565b610c9c565b610c30565b610bf1565b610bd8565b610b85565b610b6a565b610b4f565b610b28565b610a10565b6109d2565b6109ba565b610987565b61096f565b610954565b610939565b610912565b6108b2565b610872565b6107d9565b6107be565b610797565b610715565b6106fc565b6106e1565b6106c9565b6106b1565b610696565b610669565b610614565b6105d7565b6105a1565b610583565b61050e565b6104b4565b610421565b6103a5565b6001600160e01b031981165b0361037657565b600080fd5b9050359061038882610363565b565b906020828203126103765761039e9161037b565b90565b9052565b34610376576103d36103c06103bb36600461038a565b61103f565b6040515b91829182901515815260200190565b0390f35b600091031261037657565b61039e61039e61039e9290565b61039e67016345785d8a00006103e2565b61039e6103ef565b6103a1906103e2565b6020810192916103889190610408565b34610376576104313660046103d7565b6103d361043c610400565b60405191829182610411565b60005b83811061045b5750506000910152565b818101518382015260200161044b565b61048c61049560209361049f93610480815190565b80835293849260200190565b95869101610448565b601f01601f191690565b0190565b602080825261039e9291019061046b565b34610376576104c43660046103d7565b6103d36104cf611165565b604051918291826104a3565b8061036f565b90503590610388826104db565b906020828203126103765761039e916104e1565b6001600160a01b031690565b34610376576103d36105296105243660046104ee565b61116f565b6040515b918291826001600160a01b03909116815260200190565b6001600160a01b03811661036f565b9050359061038882610544565b91906040838203126103765761039e90602061057c8286610553565b94016104e1565b346103765761059c610596366004610560565b90611182565b604051005b34610376576103d36105bc6105b73660046104ee565b611305565b6040515b918291826001600160801b03909116815260200190565b34610376576103d36103c06105ed3660046104ee565b61136d565b61039e916008021c81565b9061039e91546105f2565b61039e600060076105fd565b34610376576106243660046103d7565b6103d361062f610608565b6040515b9182918290815260200190565b90916060828403126103765761039e6106598484610553565b93604061057c8260208701610553565b346103765761059c61067c366004610640565b916113c5565b906020828203126103765761039e91610553565b34610376576103d36103c06106ac366004610682565b611473565b346103765761059c6106c4366004610682565b61169d565b346103765761059c6106dc3660046104ee565b6117a8565b34610376576103d36103c06106f73660046104ee565b6117df565b346103765761059c61070f366004610640565b9161180e565b346103765761059c6107283660046104ee565b611891565b61039e916008021c6001600160a01b031690565b9061039e915461072d565b61039e60006008610741565b61039e90610502906001600160a01b031682565b61039e90610758565b61039e9061076c565b6103a190610775565b602081019291610388919061077e565b34610376576107a73660046103d7565b6103d36107b261074c565b60405191829182610787565b34610376576103d36103c06107d43660046104ee565b6118e7565b34610376576103d36105bc6107ef3660046104ee565b611915565b909182601f830112156103765781359167ffffffffffffffff831161037657602001926020830284011161037657565b909160408284031261037657813567ffffffffffffffff8111610376578361084d9184016107f4565b929093602082013567ffffffffffffffff81116103765761086e92016107f4565b9091565b346103765761059c610885366004610824565b92919091611a25565b90816101609103126103765790565b90610160828203126103765761039e9161088e565b34610376576103d361062f6108c836600461089d565b611b97565b805164ffffffffff1682526103889190604090819060208181015164ffffffffff16908501525b015164ffffffffff16910152565b60608101929161038891906108cd565b34610376576103d361092d6109283660046104ee565b611cb6565b60405191829182610902565b34610376576103d361052961094f3660046104ee565b611cc7565b34610376576103d361062f61096a366004610682565b611ce1565b346103765761059c610982366004610682565b611dd0565b34610376576103d36109a261099d3660046104ee565b611e02565b6040519182918264ffffffffff909116815260200190565b346103765761059c6109cd366004610682565b611f2f565b346103765761059c6109e53660046104ee565b61205b565b9060208282031261037657813567ffffffffffffffff81116103765761086e92016107f4565b346103765761059c610a233660046109ea565b906120af565b80516001600160801b03168252610388919060409081906020818101516001600160801b0316908501525b01516001600160801b0316910152565b80516001600160a01b0316825261038891906101a090610160906020818101516001600160a01b03169085015260408181015164ffffffffff1690850152606081810151151590850152608081810151151590850152610acc60a082015160a086019061077e565b60c08181015164ffffffffff169085015260e08181015115159085015261010081810151151590850152610120818101511515908501526108f4610140820151610140860190610a29565b6101c0810192916103889190610a64565b34610376576103d3610b43610b3e3660046104ee565b612458565b60405191829182610b17565b34610376576103d36103c0610b653660046104ee565b6124df565b34610376576103d36109a2610b803660046104ee565b612518565b3461037657610b953660046103d7565b6103d36104cf612523565b80151561036f565b9050359061038882610ba0565b91906040838203126103765761039e906020610bd18286610553565b9401610ba8565b346103765761059c610beb366004610bb5565b9061252d565b34610376576103d36105bc610c073660046104ee565b612568565b90816101409103126103765790565b90610140828203126103765761039e91610c0c565b34610376576103d361062f610c46366004610c1b565b612745565b634e487b7160e01b600052602160045260246000fd5b60051115610c6b57565b610c4b565b9061038882610c61565b61039e90610c70565b6103a190610c7a565b6020810192916103889190610c83565b34610376576103d3610cb7610cb23660046104ee565b612773565b60405191829182610c8c565b34610376576103d36103c0610cd93660046104ee565b6127b2565b634e487b7160e01b600052604160045260246000fd5b90601f01601f1916810190811067ffffffffffffffff821117610d1657604052565b610cde565b90610388610d2860405190565b9283610cf4565b67ffffffffffffffff8111610d1657602090601f01601f19160190565b90826000939282370152565b90929192610d6d610d6882610d2f565b610d1b565b938185528183011161037657610388916020850190610d4c565b9080601f830112156103765781602061039e93359101610d58565b9060808282031261037657610db78183610553565b92610dc58260208501610553565b92610dd383604083016104e1565b92606082013567ffffffffffffffff81116103765761039e9201610d87565b346103765761059c610e05366004610da2565b929190916127bd565b34610376576103d36103c0610e243660046104ee565b6127d4565b34610376576103d3610529610e3f3660046104ee565b612829565b34610376576103d36109a2610e5a3660046104ee565b612862565b91906040838203126103765761039e906020610e7b82866104e1565b9401610553565b34610376576103d36105bc610e98366004610e5f565b9061293c565b34610376576103d36104cf610eb43660046104ee565b6129cd565b34610376576103d36105bc610ecf3660046104ee565b612a7c565b34610376576103d36105bc610eea3660046104ee565b612abe565b34610376576103d36105bc610f053660046104ee565b612aec565b91906040838203126103765761039e906020610e7b8286610553565b34610376576103d36103c0610f3c366004610f0a565b90612af7565b34610376576103d36105bc610f58366004610e5f565b90612b17565b34610376576103d36107b2610f743660046104ee565b612b5c565b34610376576103d36103c0610f8f3660046104ee565b612b95565b61039e600080610741565b3461037657610faf3660046103d7565b6103d3610529610f94565b6001600160801b03811661036f565b9050359061038882610fba565b90916060828403126103765761039e610fef84846104e1565b936040610fff8260208701610553565b9401610fc9565b346103765761059c611019366004610fd6565b91612ed3565b61103261102c61039e9290565b60e01b90565b6001600160e01b03191690565b61104c634906490661101f565b6001600160e01b0319821614908115611063575090565b61039e9150612ede565b634e487b7160e01b600052602260045260246000fd5b90600160028304921680156110a3575b602083101461109e57565b61106d565b91607f1691611093565b805460009392916110ca6110c083611083565b8085529360200190565b916001811690811561111c57506001146110e357505050565b6110f69192939450600052602060002090565b916000925b8184106111085750500190565b8054848401526020909301926001016110fb565b92949550505060ff1916825215156020020190565b9061039e916110ad565b906103886111559261114c60405190565b93848092611131565b0383610cf4565b61039e9061113b565b61039e600161115c565b61039e9061117c81612f29565b50612f6a565b610388913391612f8e565b90611197906103e2565b600052602052604060002090565b61039e9060a81c5b60ff1690565b61039e90546111a5565b6111da6111d660016111d085600a61118d565b016111b3565b1590565b6111e8579061039e91611293565b62b8e7e760e51b60009081526004839052602490fd5b036000fd5b61039e9060f01c6111ad565b61039e9054611203565b61039e9060a01c6111ad565b61039e9054611219565b61039e905b6001600160801b031690565b61039e905461122f565b634e487b7160e01b600052601160045260246000fd5b61127b906001600160801b03165b916001600160801b031690565b9003906001600160801b03821161128e57565b61124a565b9190600a6112ac60006112a6848461118d565b0161120f565b806112e7575b6112ba575050565b61039e9293506112db600060026112d4856112e19561118d565b0101611240565b91612fc5565b90611260565b506113006111d660016112fa858561118d565b01611225565b6112b2565b61039e9060006111bd565b6113236111d660016111d085600a61118d565b6111e8575061039e90611335906130c6565b61133f6000610c70565b61134882610c70565b14908115611354575090565b90506113696113636001610c70565b91610c70565b1490565b61039e906000611310565b61050261039e61039e9290565b61039e90611378565b6001600160a01b0390911681526060810193926103889290916040916113b6905b6020830152565b01906001600160a01b03169052565b90916000926113d384611385565b6001600160a01b0381166001600160a01b0383161461143957506113f99082339161314d565b916001600160a01b0381165b6001600160a01b0384160361141a5750505050565b6364283d7b60e01b845283926114359290916004850161138e565b0390fd5b633250574960e11b85526001600160a01b03166004850152602484fd5b9061119790610775565b61039e906111ad565b61039e9054611460565b61148a61039e91611482600090565b506009611456565b611469565b6001600160a01b039091168152604081019291610388916020906113b6565b6000546001600160a01b03166114cc335b916001600160a01b031690565b036114da576103889061155c565b60006111fe6114f082546001600160a01b031690565b6331b339a960e21b835233906004840161148f565b9050519061038882610ba0565b906020828203126103765761039e91611505565b6040513d6000823e3d90fd5b9060ff905b9181191691161790565b9061155161039e61155892151590565b8254611532565b9055565b6000813b61157061156c836103e2565b9190565b1461167d576115bf602063f8ee98d360e01b61159361158e86610775565b610775565b604051938492839182916301ffc9a760e01b8352600483016001600160e01b0319909116815260200190565b03915afa8015611678576115d99160009161164f57501590565b61162f57506115f360016115ee836009611456565b611541565b7fb4378d4e289cb3f40f4f75a99c9cafa76e3df1c4dc31309babc23dc91bd7280161162a61162033610775565b9261052d60405190565b0390a2565b633fdc21f560e11b81526001600160a01b03919091166004820152602490fd5b6111d6915060203d602011611671575b6116698183610cf4565b810190611512565b503d61165f565b611526565b635a2b2d8360e01b81526001600160a01b03919091166004820152602490fd5b610388906114ae565b610388906116b2613203565b6116c56111d660016111d084600a61118d565b6116d25761038890611714565b62b8e7e760e51b6000908152600491909152602490fd5b61039e9060f81c6111ad565b61039e90546116e9565b908152604081019291610388916020906113b6565b9061172560016112fa84600a61118d565b1561174157634a5541ef60e01b60009081526004839052602490fd5b90611758600061175283600a61118d565b016116f5565b611790576117686111d682613257565b611775576103889061335a565b63216caf0d60e01b6000908152906111fe90339060046116ff565b63fe19f19f60e01b6000908152600491909152602490fd5b610388906116a6565b6117c46111d660016111d085600a61118d565b6111e8579061039e916112fa61039e9260019250600a61118d565b61039e9060006117b1565b906117f7610d6883610d2f565b918252565b61039e60006117ea565b61039e6117fc565b90916103889261181c611806565b926127bd565b6103889061182e613203565b6118416111d660016111d084600a61118d565b6116d2576103889061185c6111d660016112fa84600a61118d565b6118795761186c6111d6826135f0565b6117755761038890613640565b63817cd63960e01b6000908152600491909152602490fd5b61038890611822565b6118ad6111d660016111d085600a61118d565b6111e8579061039e906118bf816130c6565b6118cc6113636002610c70565b036118d45750565b61039e9192506112a6600091600a61118d565b61039e90600061189a565b6119056111d660016111d085600a61118d565b6111e8575061039e908190613673565b61039e9060006118f2565b9061038893929161192f613203565b61198a565b9081526040810192916103889160200152565b0152565b634e487b7160e01b600052603260045260246000fd5b9190811015611971576020020190565b61194b565b3561039e816104db565b3561039e81610fba565b9293929190809385808603611a0b57506119a460006103e2565b855b811015611a02576119fb816119f5878a6110196119f0856119e96119e46119d9838e6119de6119d96119a69f838d611961565b611976565b99611961565b6136f3565b938c611961565b611980565b60010190565b90506119a4565b50945050505050565b6302bb24d160e61b6000908152906111fe90876004611934565b90610388939291611920565b9061039e91611a3e613203565b611b84565b64ffffffffff811661036f565b9050359061038882611a43565b919060608382031261037657611a9e906040611a796060610d1b565b94611a848382611a50565b8652611a938360208301611a50565b602087015201611a50565b6040830152565b9190604083820312610376576113af906020611ac16040610d1b565b94611acc8382610553565b8652016104e1565b91906101608382031261037657611b7290610120611af3610100610d1b565b94611afe8382610553565b8652611b0d8360208301610553565b6020870152611b1f8360408301610fc9565b6040870152611b318360608301610553565b6060870152611b438360808301610ba8565b6080870152611b558360a08301610ba8565b60a0870152611b678360c08301611a5d565b60c087015201611aa5565b60e0830152565b61039e903690611ad4565b61039e91611b929150611b79565b613a03565b61039e906000611a31565b61039e6060610d1b565b611bb4611ba2565b906000825260208080840160005b8152016000905250565b61039e611bac565b611be76111d660016111d085600a61118d565b6111e8579061039e91611c3a565b61039e9060a01c5b64ffffffffff1690565b61039e9054611bf5565b61039e90611bfd565b61039e9054611c11565b61039e9060c81c611bfd565b61039e9054611c24565b5061039e611c546000611c4e84600a61118d565b01611c07565b91611ca8611c816000611c7b611c73611c6e86600b61118d565b611c1a565b94600a61118d565b01611c30565b91611c9a611c8d611ba2565b64ffffffffff9096168652565b64ffffffffff166020850152565b64ffffffffff166040830152565b61039e90611cc2611bcc565b611bd4565b61039e90612f29565b61039e9081565b61039e9054611cd0565b6000611cec81611385565b6001600160a01b0381166001600160a01b03841614611d1a575050611d1561039e916004611456565b611cd7565b6322718ad960e21b82526001600160a01b03166004820152602490fd5b6000546001600160a01b0316611d4c336114bf565b036114da5761038890611d80565b906001600160a01b0390611537565b90611d7961039e61155892610775565b8254611d5a565b611d8b816000611d69565b611d9d611d9733610775565b91610775565b907fbdd36143ee09de60bdefca70680e0f71189b2ed7acee364b53917ad433fdaf80611dc860405190565b80805b0390a3565b61038890611d37565b611dec6111d660016111d085600a61118d565b6111e8575061039e908190611c6e90600b61118d565b61039e906000611dd9565b6000546001600160a01b0316611e22336114bf565b036114da5761038890611e7a565b916020610388929493611e4b6040820196600083019061077e565b019061077e565b9190820391821161128e57565b91602061038892949361194760408201966000830190610408565b7fa2548bd4b805e907c1558a47b5858324fe8bb4a2e1ddfca647eecbf65610eebc611ead6008546001600160a01b031690565b91611eb9816008611d69565b611ec233610775565b92611ed8611ecf60405190565b92839283611e30565b0390a27f6bd5c950a8d8df17f772f5af37cb3655737899cbf903264b9795592da439661c611f2a611f1c611f0c6007611cd7565b611f1660016103e2565b90611e52565b604051918291600183611e5f565b0390a1565b61038890611e0d565b61038890611f44613203565b611f576111d660016111d084600a61118d565b6116d25761038890611f68816130c6565b611f726004610c70565b611f7b82610c70565b03611f9757634a5541ef60e01b60009081526004839052602490fd5b611fa16003610c70565b611faa82610c70565b03611fc65763fe19f19f60e01b60009081526004839052602490fd5b611fd36113636002610c70565b1461204357611fe46111d682613257565b61177557611f2a81612004600080516020614e4183398151915293613e01565b61200d816103e2565b7f0eb069207093cd3e51cd1370d2d369770057fbe29947e577e5fb428c6c6fc78f61203760405190565b600090a2604051610633565b6322cad1af60e11b6000908152600491909152602490fd5b61038890611f38565b9061038891612071613203565b909190829161208060006103e2565b835b8110156120a8576120a1816119f56106dc6119d9612082958a89611961565b9050612080565b5092505050565b9061038891612064565b61039e610180610d1b565b6120cc6120b9565b9060008252602080808080808080808080808d01600081520160008152016000815201600081520160008152016000815201600081520160008152016000815201611bc2611bcc565b61039e6120c4565b6121306111d660016111d085600a61118d565b6111e8579061039e916122ea565b61039e9060b01c6111ad565b61039e905461213e565b61039e9060801c611234565b61039e9054612154565b906103886121b7600161217b611ba2565b9461219561218882611240565b6001600160801b03168752565b6121b16121a182612160565b6001600160801b03166020880152565b01611240565b6001600160801b03166040840152565b61039e610140610d1b565b906103886122d960026121e36121c7565b946122056121f882546001600160a01b031690565b6001600160a01b03168752565b61221f61221182611c07565b64ffffffffff166020880152565b61223961222b82611c30565b64ffffffffff166040880152565b61224e6122458261120f565b15156060880152565b61226361225a826116f5565b15156080880152565b61228a61227a60018301546001600160a01b031690565b6001600160a01b031660a0880152565b6122a261229960018301611225565b151560c0880152565b6122ba6122b1600183016111b3565b151560e0880152565b6122d36122c96001830161214a565b1515610100880152565b0161216a565b610120840152565b61039e906121d2565b506122fe6122f982600a61118d565b6122e1565b90612308816130c6565b6123156113636002610c70565b1461244c575b61012082015160a08301516001600160a01b031661233a83600b61118d565b61234390611c1a565b92612356604086015164ffffffffff1690565b606086015115159061236c610100880151151590565b9361237a60c0890151151590565b9261238860e08a0151151590565b94612392906136f3565b906123a48a516001600160a01b031690565b996123b7602082015164ffffffffff1690565b6080909101511515926123c86120b9565b6001600160a01b03909c168c526001600160a01b031660208c015264ffffffffff1660408b0152151560608a0152151560808901526124139060a08901906001600160a01b03169052565b64ffffffffff1660c0870152151560e08601521515610100850152151561012084015261014083015264ffffffffff1661016082015290565b6000606083015261231b565b61039e90612464612115565b61211d565b61247c6111d660016111d085600a61118d565b6111e8575061039e9061248e906130c6565b6124986002610c70565b6124a182610c70565b149081156124c3575b81156124b4575090565b90506113696113636004610c70565b90506124cf6003610c70565b6124d882610c70565b14906124aa565b61039e906000612469565b6124fd6111d660016111d085600a61118d565b6111e8579061039e91611c7b61039e9260009250600a61118d565b61039e9060006124ea565b61039e600261115c565b610388919033613e41565b61254b6111d660016111d085600a61118d565b6111e8579061039e9160026112d461039e9360009350600a61118d565b61039e906000612538565b9061039e91612580613203565b6125c6565b611bfd61039e61039e9290565b3561039e81611a43565b3561039e81610544565b3561039e81610ba0565b61039e610100610d1b565b61039e903690611aa5565b506125cf611bcc565b906125e76125dc42612585565b64ffffffffff168352565b60c08101916125f583612592565b9260009361261061260586612585565b9164ffffffffff1690565b11612705575b8382015164ffffffffff169060200161262e90612592565b0164ffffffffff16604082015261264682840161259c565b916126536020820161259c565b61265f60408301611980565b61266b6060840161259c565b90612678608085016125a6565b9261268560a086016125a6565b9461010001966126936125b0565b988901906126a991906001600160a01b03169052565b6001600160a01b031660208801526001600160801b031660408701526126db9060608701906001600160a01b03169052565b15156080850152151560a084015260c08301526126f7906125bb565b60e082015261039e90613a03565b61274061273261271c8685015164ffffffffff1690565b612727878501612592565b0164ffffffffff1690565b64ffffffffff166020840152565b612616565b61039e906000612573565b6127636111d660016111d085600a61118d565b6111e8575061039e9081906130c6565b61039e906000612750565b6127916111d660016111d085600a61118d565b6111e8579061039e916127ac61039e9260019250600a61118d565b0161214a565b61039e90600061277e565b906103889392916127cf8383836113c5565b613f17565b60016111d061039e926127e5600090565b50600a61118d565b6128006111d660016111d085600a61118d565b6111e8579061039e9161281b61039e9260009250600a61118d565b01546001600160a01b031690565b61039e9060006127ed565b6128476111d660016111d085600a61118d565b6111e8579061039e91611c4e61039e9260009250600a61118d565b61039e906000612834565b9061039e929161287b613203565b929190926128926111d660016111d087600a61118d565b6128a1579261039e92936128c4565b62b8e7e760e51b60009081526004859052602490fd5b61123461039e61039e9290565b929192506128d1816136f3565b926001600160a01b03841633036129235790610388916128f08261402b565b94856128fc60006128b7565b6001600160801b03821611612912575b50614042565b61291d908285612ed3565b3861290c565b63216caf0d60e01b60009081526111fe338460046116ff565b61039e9190600061286d565b90929192612958610d6882610d2f565b938185528183011161037657610388916020850190610448565b9080601f8301121561037657815161039e92602001612948565b9060208282031261037657815167ffffffffffffffff81116103765761039e9201612972565b9160206103889294936119476040820196600083019061077e565b6000612a19916129db606090565b506129e581612f29565b506129fb61158e6008546001600160a01b031690565b6040519384928391829163e9dc637560e01b835230600484016129b2565b03915afa90811561167857600091612a2f575090565b61039e91503d806000833e612a448183610cf4565b81019061298c565b612a5f6111d660016111d085600a61118d565b6111e8579061039e9160026112d461039e9360019350600a61118d565b61039e906000612a4c565b612a9a6111d660016111d085600a61118d565b6111e8579061039e916002612ab761039e9360009350600a61118d565b0101612160565b61039e906000612a87565b612adc6111d660016111d085600a61118d565b6111e8575061039e90819061402b565b61039e906000612ac9565b61039e91612b1261148a92612b0a600090565b506006611456565b611456565b919061038890612b268461402b565b908194612ed3565b612b416111d660016111d085600a61118d565b6111e8579061039e9161281b61039e9260019250600a61118d565b61039e906000612b2e565b612b7a6111d660016111d085600a61118d565b6111e8579061039e9161175261039e9260009250600a61118d565b61039e906000612b67565b906103889291612bae613203565b929190612bc46111d660016111d087600a61118d565b6128a1576103889293612c8f565b9081526060810193926103889290916040916113b6905b6001600160a01b03166020830152565b908152606081019392610388929091604091612c20905b6001600160801b03166020830152565b01906001600160801b03169052565b9050519061038882610363565b906020828203126103765761039e91612c2f565b612c2061038894612c7f606094989795612c6f608086019a6000870152565b6001600160a01b03166020850152565b6001600160a01b03166040830152565b919091612ca260016112fa83600a61118d565b612ebb57600092612cb561050285611385565b6001600160a01b03821614612ea557612ccd846128b7565b6001600160801b03841614612e8f57612ce5826136f3565b926001600160a01b0384166001600160a01b038316141580612e7d575b612e6257612d0f8361402b565b6001600160801b0381166001600160801b03831611612e475750612d348183856140f3565b600080516020614e41833981519152612d4c60405190565b848152602090a16001600160a01b03841633141580612e33575b612d72575b5050505050565b612dac9260209286612d8661158e88610775565b92612d9060405190565b968795869485936392b9102b60e01b8552339060048601612c50565b03925af190811561167857600091612e04575b50612dda6392b9102b60e01b5b916001600160e01b03191690565b03612de757808080612d6b565b632187e5e760e21b82526001600160a01b03166004820152602490fd5b612e26915060203d602011612e2c575b612e1e8183610cf4565b810190612c3c565b38612dbf565b503d612e14565b50612e4261148a856009611456565b612d66565b856114358192848763287ecaef60e21b855260048501612bf9565b63b34359d360e01b8552848061143584338760048501612bd2565b50612e8a6111d6846135f0565b612d02565b63d2aabcd960e01b845260048401829052602484fd5b630ff7ee2d60e31b845260048401829052602484fd5b634a5541ef60e01b6000908152600491909152602490fd5b906103889291612ba0565b6380ac58cd60e01b6001600160e01b0319821614908115612f0e575b8115612f04575090565b61039e91506141f7565b6001600160e01b03198116635b5e139f60e01b149150612efa565b612f32816136f3565b90600090612f4261050283611385565b6001600160a01b03841614612f5657505090565b637e27328960e01b82526004820152602490fd5b612f8161039e91612f79600090565b50600561118d565b546001600160a01b031690565b9160019161038893614207565b61039e61039e61039e9264ffffffffff1690565b61039e61039e61039e926001600160801b031690565b612fdb612fd6611c6e83600b61118d565b612f9b565b90600a91612ff1612fd66000611c4e858761118d565b90421080156130bc575b6130af57613011612fd66000611c7b858761118d565b908142101561309c579061303b6130318361303661303161304196420390565b614337565b930390565b90614351565b9161307261306b61306461303161305f600060026112d4898961118d565b612faf565b8095614382565b938461439e565b61308957505061308461039e91614337565b6128b7565b61039e9250612ab760009260029261118d565b505060026112d460009261039e9461118d565b50505061039e60006128b7565b5042811015612ffb565b600a906130d860016112fa838561118d565b156130e4575050600490565b6130f36000611752838561118d565b61314657613109612fd66000611c4e848661118d565b421061313f5761126e611234600060026112d48561312961312f97612fc5565b9761118d565b101561313a57600190565b600290565b5050600090565b5050600390565b929190613159816136f3565b9360009461316686611385565b906131796001600160a01b0383166114bf565b141590816131e6575b50806131cd575b6131b75761039e939450600080516020614e418339815191526131ab60405190565b838152602090a16143bd565b630da9b01360e01b855260048501829052602485fd5b506131e16111d660016127ac85600a61118d565b613189565b6001600160a01b031690506001600160a01b038216141538613182565b61320c30610775565b61323e6001600160a01b037f0000000000000000000000000000000000000000000000000000000000000000166114bf565b0361324557565b63a1c0d6e560e01b6000908152600490fd5b610502600061281b61326b936127e5600090565b331490565b61039e9061216a565b906001600160f81b03199060f81b611537565b9061329c61039e61155892151590565b8254613279565b9060ff60f01b9060f01b611537565b906132c261039e61155892151590565b82546132a3565b9060ff60a01b9060a01b611537565b906132e861039e61155892151590565b82546132c9565b906001600160801b0390611537565b61123461039e61039e926001600160801b031690565b9061332461039e611558926132fe565b82546132ef565b612c206103889461334a606094989795612c6f608086019a6000870152565b6001600160801b03166040830152565b61336381612fc5565b600a9061337b6002613375858561118d565b01613270565b908161339161123482516001600160801b031690565b6001600160801b03831610156135d9576133b36111d660006112a6888861118d565b6135c257906112e160206133eb836133de6133fa966133d0600090565b50516001600160801b031690565b036001600160801b031690565b9401516001600160801b031690565b9060019061341482600061340e888861118d565b0161328c565b60009461342c8680613426848961118d565b016132b2565b613435866128b7565b6001600160801b038516146135a8575b61345d82846002613456858a61118d565b0101613314565b61348261346e8761281b848961118d565b9361281b8361347c816136f3565b9861118d565b61349561348e84612faf565b858361452d565b61349e84610775565b906134ab611d9788610775565b917f5edb27d6c1a327513b90a792050debf074b7194444885e3144d4decc5caaaa506134d660405190565b806134e38a898984612bf9565b0390a4600080516020614e418339815191526134fe60405190565b828152602090a161351361148a866009611456565b613520575b505050505050565b6020928661353061158e88610775565b9261355761353d60405190565b97889687958694630d4af11f60e31b86526004860161332b565b03925af190811561167857600091613589575b5061357b630d4af11f60e31b612dcc565b03612de75780808080613518565b6135a2915060203d602011612e2c57612e1e8183610cf4565b3861356a565b6135bd83806135b7848961118d565b016132d8565b613445565b6339c6dc7360e21b60009081526004869052602490fd5b6322cad1af60e11b60009081526004869052602490fd5b6135f9816136f3565b906001600160a01b038216331491821561362c575b508115613619575090565b613623915061116f565b611369336114bf565b6136399192503390612af7565b903861360e565b60009061364c82611385565b61366a6114bf61365d83858161314d565b926001600160a01b031690565b14612f56575050565b600a6136846002613375848461118d565b9061369460016112fa858461118d565b156136ac5750602001516001600160801b0316905090565b6000611752846136bb9361118d565b6136c9575061039e90612fc5565b61039e91506112e160406136e483516001600160801b031690565b9201516001600160801b031690565b612f8161039e91613702600090565b50600361118d565b9064ffffffffff60a01b9060a01b611537565b611bfd61039e61039e9264ffffffffff1690565b9061374161039e6115589261371d565b825461370a565b9064ffffffffff60c81b9060c81b611537565b9061376b61039e6115589261371d565b8254613748565b9060ff60a81b9060a81b611537565b9061379161039e61155892151590565b8254613772565b9060ff60b01b9060b01b611537565b906137b761039e61155892151590565b8254613798565b906fffffffffffffffffffffffffffffffff199060801b611537565b906137ea61039e611558926132fe565b82546137be565b6103889160019061383f906040906138318561381d61381784516001600160801b031690565b82613314565b60208301516001600160801b0316906137da565b01516001600160801b031690565b9101613314565b90610388916137f1565b6103889160029061393390610120906138d68561387d61387784516001600160a01b031690565b82611d69565b613898613892602085015164ffffffffff1690565b82613731565b6138b36138ad604085015164ffffffffff1690565b8261375b565b6138c96138c36060850151151590565b826132b2565b608083015115159061328c565b61392e600186016138f461387760a08501516001600160a01b031690565b61390a61390460c0850151151590565b826132d8565b61392061391a60e0850151151590565b82613781565b6101008301511515906137a7565b015190565b9101613846565b9061038891613850565b9064ffffffffff90611537565b9061396161039e6115589261371d565b8254613944565b9060001990611537565b9061398261039e611558926103e2565b8254613968565b80516001600160801b0316825261038891906020908190610a54565b9081526001600160a01b0390911660208201526101408101969594909390929091604085016139d391613989565b15156080840152151560a083015260c082016139ee916108cd565b61012001610388916001600160a01b03169052565b61012052613a47613a2160406101205101516001600160801b031690565b60e0610120510160e052613a39602060e05151015190565b613a416103ef565b916145e1565b60a081905290613a77613a6183516001600160801b031690565b60c06101205101610140526101405151906146d2565b613a816007611cd7565b608081905291516001600160801b0316613aab613a9c611ba2565b6001600160801b039092168252565b613ab560006128b7565b60c08190526001600160801b0316602082015260c0516001600160801b031660408201526060610120510161010052613c076000613bf5613b0061010051516001600160a01b031690565b93613bed613b1a60406101405151015164ffffffffff1690565b613bd56080610120510197613bbe613b328a51151590565b60a0610120510161016052613bb5613b4d6101605151151590565b95613ba7613b678c6101205101516001600160a01b031690565b613b99613b7f8e6101405151015164ffffffffff1690565b91613b886121c7565b9e8f01906001600160a01b03169052565b64ffffffffff1660208d0152565b64ffffffffff1660408b0152565b15156060890152565b600060808801526001600160a01b031660a0870152565b600060c0860152600160e08601521515610100850152565b610120830152565b613c02608051600a61118d565b61393a565b61014051516020015164ffffffffff16613c246126056000612585565b11613dd1575b613c48613c41613c3a60016103e2565b6080510190565b6007613972565b613c6b613c6260206101205101516001600160a01b031690565b608051906148dc565b613ca9613c8261010051516001600160a01b031690565b613c8b30610775565b60a05151613ca1906001600160801b0316612faf565b913390614988565b60a051602001805160c0516001600160801b0390911611613d87575b5061012051516001600160a01b031690613cec60206101205101516001600160a01b031690565b7f44cb432df42caa86b7ec73644ab8aec922bc44c71c98fc330addc75b88adbc7c613d2b613d2461010051516001600160a01b031690565b9351151590565b6101605151151590613d82610140515196613d68613d62613d62613d5c600060e0515101516001600160a01b031690565b93610775565b97610775565b97613d7260405190565b94859460a05133608051886139a5565b0390a4565b613dcb90613d9f61010051516001600160a01b031690565b90613ca161305f613dbd600060e0515101516001600160a01b031690565b92516001600160801b031690565b38613cc5565b613dfc613dea60206101405151015164ffffffffff1690565b613df7608051600b61118d565b613951565b613c2a565b613e146111d660006112a684600a61118d565b613e295760008061342661038893600a61118d565b6339c6dc7360e21b6000908152600491909152602490fd5b6000613e4f61050282611385565b6001600160a01b03841614613ea75750611dcb613e9d613d5c8361158e876115ee88612b127f17307eab39ab6107e8899845ad3d59bd9653f200f220920489ca2b5937696c31996006611456565b936103c460405190565b630b61174360e31b81526001600160a01b0383166004820152602490fd5b6001600160a01b03909116815261039e9360808201939092613eeb9190611a9e90612c6f565b606081840391015261046b565b3d15613f1257613f073d6117ea565b903d6000602084013e565b606090565b6000939192833b613f2a61156c876103e2565b11613f36575050505050565b602091613f4561158e86610775565b908633613f6e613f5460405190565b97889687958694630a85bd0160e11b865260048601613ec5565b03925af16000918161400a575b50613fd15750613f90565b3880808080612d6b565b613f98613ef8565b8051613fa661156c856103e2565b03613fc95750633250574960e11b82526001600160a01b03166004820152602490fd5b805190602001fd5b613fe1630a85bd0160e11b612dcc565b03613fed575050613f86565b633250574960e11b82526001600160a01b03166004820152602490fd5b61402491925060203d602011612e2c57612e1e8183610cf4565b9038613f7b565b61039e906112e160006002612ab7611c7385613673565b91929060009261405184611385565b916001600160a01b0383166001600160a01b038216146140b15761365d83876140799361314d565b6001600160a01b0383160361409e57637e27328960e01b845260048401859052602484fd5b919390916001600160a01b038116611405565b633250574960e11b85526001600160a01b0383166004860152602485fd5b6140e1906001600160801b031661126e565b01906001600160801b03821161128e57565b907f40b88e5c41c5a97ffb7b6ef88a0a2d505aa0c634cf8a0275cb236ea7dd87ed4d613d826141c96141c3806141aa600161281b89600a61415c6141478e61414260006002612ab7888861118d565b6140cf565b60006002614155868661118d565b01016137da565b61416b6002613375848461118d565b61419f61126e61123461418860208501516001600160801b031690565b936112e160406136e483516001600160801b031690565b10156141d35761118d565b966141be6141b78a612faf565b888a61452d565b6103e2565b94610775565b946105c060405190565b6141e284806135b7858561118d565b6141f2600080613426858561118d565b61118d565b6113696301ffc9a760e01b612dcc565b92919091808115614318575b61422e575b50509061422961038892600561118d565b611d69565b61423783612f29565b9160009061424761050283611385565b6001600160a01b0382161415806142fc575b806142e9575b6142cc5750509161422991610388949361427c575b509192614218565b61428590610775565b61428e84610775565b614297836103e2565b917f8c5be1e5ebec7d5bd14f71427d1e84f3dd0314c0f7b2291e5b200ac8c7c3b9256142c260405190565b600090a438614274565b63a9fbf51f60e01b82526001600160a01b03166004820152602490fd5b506142f76111d68286612af7565b61425f565b506001600160a01b0381166001600160a01b0385161415614259565b506143266105026000611385565b6001600160a01b0383161415614213565b61039e906103e2565b61039e670de0b6b3a76400006103e2565b61039e9161436a61303192614364600090565b50614337565b9061437c614376614340565b91614337565b916149fe565b61039e9161439861437661303193614364600090565b90614b2a565b61156c61039e6143b36143b993614364600090565b93614337565b1190565b9061441b6143ca826136f3565b9360006143d681611385565b91846001600160a01b0384166001600160a01b038316036144ec575b50506001600160a01b0382166001600160a01b038716036144b1575b506001600160a01b031690565b6001600160a01b03831603614481575b61443a8261422983600361118d565b61444f614449613d5c85610775565b916103e2565b917fddf252ad1be2c89b69c2b068fc378daa952ba7f163c4a11628f55a4df523b3ef61447a60405190565b600090a490565b6144ac61448e60016103e2565b6144a661449c856004611456565b9161049f83611cd7565b90613972565b61442b565b6144bd90828581614207565b6144e66144ca60016103e2565b6144a66144d8886004611456565b916144e283611cd7565b0390565b3861440e565b6144f69188614be5565b38846143f2565b61103261102c61039e9263ffffffff1690565b6001600160a01b0390911681526040810192916103889160200152565b6145706004926145616103889561454763a9059cbb6144fd565b9261455160405190565b9687946020860190815201614510565b60208201810382520383610cf4565b614c45565b61039e6040610d1b565b614587614575565b906000825260006020830152565b61039e61457f565b9160206103889294936145b860408201966000830190610408565b0190610408565b634e487b7160e01b600052600160045260246000fd5b156145dc57565b6145bf565b929190926145ed614595565b936000926145fa846128b7565b6001600160801b038416146146a257614613818361439e565b6146885750816112e161463e613084613031614679956146396130316103889a99612faf565b614382565b6001600160801b0316602088018181529061466c9061465c90611234565b6001600160801b038516116145d5565b516001600160801b031690565b6001600160801b031690840152565b6327f52e0d60e11b8452839250611435916004840161459d565b50505090915061039e6146b3614575565b91612c106146c0826128b7565b80928501906001600160801b03169052565b906000916146e261126e846128b7565b146148cc57808201805164ffffffffff166146ff61260585612585565b146148bd5760208201805164ffffffffff1661471d61260586612585565b116147ef575b506040614735825164ffffffffff1690565b92019161474d612605611bfd855164ffffffffff1690565b10156147a7575061475d42612585565b90614770611bfd825164ffffffffff1690565b64ffffffffff8316101561478357505050565b51631085760760e11b835264ffffffffff9182166004840152166024820152604490fd5b82916147ca6147be611435935164ffffffffff1690565b915164ffffffffff1690565b631415fc2160e21b845264ffffffffff91821660048501521660248301526044820190565b815164ffffffffff1661480d612605611bfd845164ffffffffff1690565b101561488057805164ffffffffff16906040840191614837612605611bfd855164ffffffffff1690565b10156148435750614723565b611435859261485b6147be85945164ffffffffff1690565b639fee269160e01b845264ffffffffff91821660048501521660248301526044820190565b8392506148986147be611435935164ffffffffff1690565b6359cc18f560e11b845264ffffffffff91821660048501521660248301526044820190565b63d572dbcb60e01b8352600483fd5b5063182574ef60e21b8152600490fd5b6000916148e883611385565b916001600160a01b0383166001600160a01b038216146149455761490d91839161314d565b61491f6001600160a01b0383166114bf565b03614928575050565b6339e3563760e11b82526001600160a01b03166004820152602490fd5b633250574960e11b84526001600160a01b0383166004850152602484fd5b6001600160a01b03909116815260608101939261038892909160409161194790612be9565b9061457090614561610388956004956149a46323b872dd6144fd565b936149ae60405190565b9788956020870190815201614963565b634e487b7160e01b600052601260045260246000fd5b81156149de570490565b6149be565b908152606081019392610388929091604091611947906113af565b92919060009160001982860991808602928380821091030390600096614a23886103e2565b8314614b1a5783831015614aff5783614a759361039e989995614a88979460019409908482119003930396614a62614a59831990565b61049f856103e2565b8216808093819350049804950304010290565b1791614a88614a8c82614a8860036103e2565b0290565b6144e2614449614af9614aea614adb614acc614abd600297614aad896103e2565b18614a888b82026144e28b6103e2565b614a888a82026144e28a6103e2565b614a888982026144e2896103e2565b614a888882026144e2886103e2565b614a888782026144e2876103e2565b80950290565b6114358489938493630c740aef60e31b8552600485016149e3565b505050915061039e9293506149d4565b919060009260001982820991808202928380821091030391600095614b4e876103e2565b8414614bcd57614b5f61039e614340565b841015614bb3576204000080670de0b6b3a76400007faccb18165bd6fe31ae1cf318dc5b51eee0e1ba569b88cd74c1773b91fac1066998999582979560019550099403040190848311900302920304170290565b635173648d60e01b87528680611435858560048401611934565b5050505061039e919250614bdf614340565b906149d4565b90614bf46111d6848385614cc4565b614bfd57505050565b6000928392614c116114bf61050286611385565b03614c2e57637e27328960e01b8352600483015250602481010390fd5b63177e802f60e01b83526114359160048401614510565b614c51614c5891610775565b9182614d4c565b90614c61825190565b91600092614c7161156c856103e2565b14159081614ca0575b50614c83575050565b635274afe760e01b82526001600160a01b03166004820152602490fd5b614cbe9150806020614cb36111d6935190565b818301019101611512565b38614c7a565b90614cd26105026000611385565b6001600160a01b03821614159283614ceb575b50505090565b919250906001600160a01b0382166001600160a01b03841614928315614d38575b508215614d1e575b5050388080614ce5565b614d3091925061365d6114bf91612f6a565b143880614d14565b614d459193508290612af7565b9138614d0c565b61039e91614d5a60006103e2565b929190614d6630610775565b9380853110614d935761039e93945081600092916020849351920190855af1614d8d613ef8565b91614db2565b63cd78605960e01b60009081526001600160a01b038616600452602490fd5b90614dbd5750614e11565b815190600091614dcf61156c846103e2565b1480614dfc575b614ddf57505090565b639996b31560e01b82526001600160a01b03166004820152602490fd5b50803b614e0b61156c846103e2565b14614dd6565b8051600090614e2261156c836103e2565b1115614e315750805190602001fd5b630a12f52160e11b8152600490fdfef8e1a15aba9398e019f0b49df1a4fde98ee17ae345cb5f6b5e2c27f5033e8ce7a26469706673582212200d52467c5996e2430e41016257d69ed52e58c3d31752ac33a82a493e56ca382264736f6c634300081a0033",
  "linkReferences": {},
  "deployedLinkReferences": {}
}