{
  "_format": "hh-sol-artifact-1",
  "contractName": "SablierV2NFTDescriptor",
  "sourceName": "contracts/SablierV2NFTDescriptor.sol",
  "abi": [
    {
      "inputs": [
        {
          "internalType": "contract IERC721Metadata",
          "name": "nft",
          "type": "address"
        },
        {
          "internalType": "string",
          "name": "symbol",
          "type": "string"
        }
      ],
      "name": "SablierV2NFTDescriptor_UnknownNFT",
      "type": "error"
    },
    {
      "inputs": [
        {
          "internalType": "uint256",
          "name": "value",
          "type": "uint256"
        },
        {
          "internalType": "uint256",
          "name": "length",
          "type": "uint256"
        }
      ],
      "name": "StringsInsufficientHexLength",
      "type": "error"
    },
    {
      "inputs": [
        {
          "internalType": "contract IERC721Metadata",
          "name": "sablier",
          "type": "address"
        },
        {
          "internalType": "uint256",
          "name": "streamId",
          "type": "uint256"
        }
      ],
      "name": "tokenURI",
      "outputs": [
        {
          "internalType": "string",
          "name": "uri",
          "type": "string"
        }
      ],
      "stateMutability": "view",
      "type": "function"
    }
  ],
  "bytecode": "0x6080604052348015600f57600080fd5b50616cd48061001f6000396000f3fe608060405234801561001057600080fd5b506004361061002b5760003560e01c8063e9dc637514610030575b600080fd5b61004a60048036038101906100459190612d20565b610060565b6040516100579190612df0565b60405180910390f35b606061006a612b4d565b838160c0019073ffffffffffffffffffffffffffffffffffffffff16908173ffffffffffffffffffffffffffffffffffffffff16815250506100ab846107e4565b8160e001819052506100d28473ffffffffffffffffffffffffffffffffffffffff16610a43565b8161010001819052508060c0015173ffffffffffffffffffffffffffffffffffffffff1663eac8f5b8846040518263ffffffff1660e01b81526004016101189190612e21565b602060405180830381865afa158015610135573d6000803e3d6000fd5b505050506040513d601f19601f820116820180604052508101906101599190612e7a565b816000019073ffffffffffffffffffffffffffffffffffffffff16908173ffffffffffffffffffffffffffffffffffffffff168152505061019d8160000151610a70565b81602001819052508060c0015173ffffffffffffffffffffffffffffffffffffffff1663a80fc071846040518263ffffffff1660e01b81526004016101e29190612e21565b602060405180830381865afa1580156101ff573d6000803e3d6000fd5b505050506040513d601f19601f820116820180604052508101906102239190612eef565b81604001906fffffffffffffffffffffffffffffffff1690816fffffffffffffffffffffffffffffffff16815250506102d88160c0015173ffffffffffffffffffffffffffffffffffffffff1663ad35efd4856040518263ffffffff1660e01b81526004016102929190612e21565b602060405180830381865afa1580156102af573d6000803e3d6000fd5b505050506040513d601f19601f820116820180604052508101906102d39190612f41565b610c37565b81610120018190525061036c8160c0015173ffffffffffffffffffffffffffffffffffffffff16634869e12d856040518263ffffffff1660e01b81526004016103219190612e21565b602060405180830381865afa15801561033e573d6000803e3d6000fd5b505050506040513d601f19601f820116820180604052508101906103629190612eef565b8260400151610e1a565b8161016001818152505061055260405180610140016040528061038f8787610e6f565b81526020016103c384604001516fffffffffffffffffffffffffffffffff166103bb8660000151610f78565b60ff1661106d565b81526020016103eb846000015173ffffffffffffffffffffffffffffffffffffffff16610a43565b81526020018360200151815260200161050c8460c0015173ffffffffffffffffffffffffffffffffffffffff1663bc2be1be886040518263ffffffff1660e01b815260040161043a9190612e21565b602060405180830381865afa158015610457573d6000803e3d6000fd5b505050506040513d601f19601f8201168201806040525081019061047b9190612fab565b64ffffffffff168560c0015173ffffffffffffffffffffffffffffffffffffffff16639067b677896040518263ffffffff1660e01b81526004016104bf9190612e21565b602060405180830381865afa1580156104dc573d6000803e3d6000fd5b505050506040513d601f19601f820116820180604052508101906105009190612fab565b64ffffffffff166113cf565b815260200161051f84610160015161156a565b8152602001836101600151815260200183610100015181526020018360e0015181526020018361012001518152506115c9565b8161014001819052508060c0015173ffffffffffffffffffffffffffffffffffffffff16836040516024016105879190612e21565b60405160208183030381529060405263b256456960e01b6020820180517bffffffffffffffffffffffffffffffffffffffffffffffffffffffff83818316178352505050506040516105d9919061301f565b600060405180830381855afa9150503d8060008114610614576040519150601f19603f3d011682016040523d82523d6000602084013e610619565b606091505b5082610180018360a0018290528215151515815250505080610180015161064157600161065a565b8060a00151806020019051810190610659919061306e565b5b816060019015159081151581525050610718816020015161070d8360c0015173ffffffffffffffffffffffffffffffffffffffff1663b971302a876040518263ffffffff1660e01b81526004016106b19190612e21565b602060405180830381865afa1580156106ce573d6000803e3d6000fd5b505050506040513d601f19601f820116820180604052508101906106f291906130c7565b73ffffffffffffffffffffffffffffffffffffffff16610a43565b8361012001516117d7565b6107618260e00151836020015184610100015161074e866000015173ffffffffffffffffffffffffffffffffffffffff16610a43565b61075789611806565b87606001516118d4565b6107778360e0015161077287611806565b611952565b61078584610140015161197e565b6040516020016107989493929190613286565b60405160208183030381529060405281608001819052506107bc816080015161197e565b6040516020016107cc919061332d565b60405160208183030381529060405291505092915050565b606060008273ffffffffffffffffffffffffffffffffffffffff166395d89b416040518163ffffffff1660e01b8152600401600060405180830381865afa158015610833573d6000803e3d6000fd5b505050506040513d6000823e3d601f19601f8201168201806040525081019061085c9190613479565b90506108a66040518060400160405280601181526020017f5341422d56322d4c4f434b55502d4c494e00000000000000000000000000000081525082611af090919063ffffffff16565b156108e9576040518060400160405280600d81526020017f4c6f636b7570204c696e65617200000000000000000000000000000000000000815250915050610a3e565b6109316040518060400160405280601181526020017f5341422d56322d4c4f434b55502d44594e00000000000000000000000000000081525082611af090919063ffffffff16565b15610974576040518060400160405280600e81526020017f4c6f636b75702044796e616d6963000000000000000000000000000000000000815250915050610a3e565b6109bc6040518060400160405280601181526020017f5341422d56322d4c4f434b55502d54524100000000000000000000000000000081525082611af090919063ffffffff16565b156109ff576040518060400160405280600f81526020017f4c6f636b7570205472616e636865640000000000000000000000000000000000815250915050610a3e565b82816040517f814a8a2e000000000000000000000000000000000000000000000000000000008152600401610a35929190613521565b60405180910390fd5b919050565b6060610a698273ffffffffffffffffffffffffffffffffffffffff16601460ff16611b18565b9050919050565b60606000808373ffffffffffffffffffffffffffffffffffffffff166040516024016040516020818303038152906040526395d89b4160e01b6020820180517bffffffffffffffffffffffffffffffffffffffffffffffffffffffff8381831617835250505050604051610ae4919061301f565b600060405180830381855afa9150503d8060008114610b1f576040519150601f19603f3d011682016040523d82523d6000602084013e610b24565b606091505b5091509150811580610b3857506040815111155b15610b7c576040518060400160405280600581526020017f455243323000000000000000000000000000000000000000000000000000000081525092505050610c32565b600081806020019051810190610b929190613479565b9050601e81511115610bde576040518060400160405280600b81526020017f4c6f6e672053796d626f6c0000000000000000000000000000000000000000008152509350505050610c32565b610be781611d5e565b610c2b576040518060400160405280601281526020017f556e737570706f727465642053796d626f6c00000000000000000000000000008152509350505050610c32565b8093505050505b919050565b6060600480811115610c4c57610c4b613551565b5b826004811115610c5f57610c5e613551565b5b03610ca1576040518060400160405280600881526020017f4465706c657465640000000000000000000000000000000000000000000000008152509050610e15565b60036004811115610cb557610cb4613551565b5b826004811115610cc857610cc7613551565b5b03610d0a576040518060400160405280600881526020017f43616e63656c65640000000000000000000000000000000000000000000000008152509050610e15565b60016004811115610d1e57610d1d613551565b5b826004811115610d3157610d30613551565b5b03610d73576040518060400160405280600981526020017f53747265616d696e6700000000000000000000000000000000000000000000008152509050610e15565b60026004811115610d8757610d86613551565b5b826004811115610d9a57610d99613551565b5b03610ddc576040518060400160405280600781526020017f536574746c6564000000000000000000000000000000000000000000000000008152509050610e15565b6040518060400160405280600781526020017f50656e64696e670000000000000000000000000000000000000000000000000081525090505b919050565b6000816fffffffffffffffffffffffffffffffff1661271084026fffffffffffffffffffffffffffffffff1681610e5457610e53613580565b5b046fffffffffffffffffffffffffffffffff16905092915050565b606060004690506000818585604051602001610e8d93929190613618565b6040516020818303038152906040528051906020012060001c9050600061016860108363ffffffff16901c63ffffffff1681610ecc57610ecb613580565b5b0663ffffffff16905060006014605060ff60088663ffffffff16901c1663ffffffff1681610efd57610efc613580565b5b060163ffffffff1690506000601e604660ff861663ffffffff1681610f2557610f24613580565b5b060163ffffffff169050610f3883611806565b610f4183611806565b610f4a83611806565b604051602001610f5c939291906136ed565b6040516020818303038152906040529550505050505092915050565b60008060008373ffffffffffffffffffffffffffffffffffffffff1660405160240160405160208183030381529060405263313ce56760e01b6020820180517bffffffffffffffffffffffffffffffffffffffffffffffffffffffff8381831617835250505050604051610fec919061301f565b600060405180830381855afa9150503d8060008114611027576040519150601f19603f3d011682016040523d82523d6000602084013e61102c565b606091505b509150915081801561103f575060208151145b1561106157808060200190518101906110589190613793565b92505050611068565b6000925050505b919050565b6060600083036110b4576040518060400160405280600181526020017f300000000000000000000000000000000000000000000000000000000000000081525090506113c9565b60008083146110d65782600a0a84816110d0576110cf613580565b5b046110d8565b835b90506001811015611140576040518060400160405280600481526020017f266c743b0000000000000000000000000000000000000000000000000000000081525060405160200161112991906137e6565b6040516020818303038152906040529150506113c9565b66038d7ea4c6800081106111ab576040518060400160405280600481526020017f2667743b000000000000000000000000000000000000000000000000000000008152506040516020016111949190613832565b6040516020818303038152906040529150506113c9565b60006040518060a001604052806040518060200160405280600081525081526020016040518060400160405280600181526020017f4b0000000000000000000000000000000000000000000000000000000000000081525081526020016040518060400160405280600181526020017f4d0000000000000000000000000000000000000000000000000000000000000081525081526020016040518060400160405280600181526020017f420000000000000000000000000000000000000000000000000000000000000081525081526020016040518060400160405280600181526020017f54000000000000000000000000000000000000000000000000000000000000008152508152509050600080600090505b6103e8841061130f576064600a85816112dd576112dc613580565b5b04816112ec576112eb613580565b5b0691506103e8848161130157611300613580565b5b0493506001810190506112c1565b60006040518060400160405280600781526020017f2623383830353b00000000000000000000000000000000000000000000000000815250604051602001611357919061387e565b6040516020818303038152906040529050600061137386611806565b9050600061138085611f66565b9050828282888760058110611398576113976138a4565b5b60200201516040516020016113b094939291906138d3565b6040516020818303038152906040529750505050505050505b92915050565b6060600062015180848403816113e8576113e7613580565b5b04905060008103611450576040518060400160405280600481526020017f266c743b000000000000000000000000000000000000000000000000000000008152506040516020016114399190613937565b604051602081830303815290604052915050611564565b61270f8111156114b7576040518060400160405280600481526020017f2667743b000000000000000000000000000000000000000000000000000000008152506040516020016114a09190613983565b604051602081830303815290604052915050611564565b6000600182146114fc576040518060400160405280600581526020017f2044617973000000000000000000000000000000000000000000000000000000815250611533565b6040518060400160405280600481526020017f20446179000000000000000000000000000000000000000000000000000000008152505b905061153e82611806565b816040516020016115509291906139a9565b604051602081830303815290604052925050505b92915050565b6060600061158360648461157e91906139cd565b611f66565b9050600061159c6064856115979190613a2d565b611806565b905080826040516020016115b1929190613a84565b60405160208183030381529060405292505050919050565b60606115d3612bf7565b6115f460008460a001516115ef8660c001518760000151611fef565b612087565b826101200183610100018290528281525050506116176001846101200151612169565b8261018001836101600182905282815250505061163960028460200151612169565b826020018360000182905282815250505061165960038460800151612169565b8260c0018360a00182905282815250505060036010028161018001518261012001518360c00151846020015101010101816080018181525050600281608001516103e803816116ab576116aa613580565b5b048161014001818152505060108161012001518261014001510101816101a00181815250506010816101800151826101a00151010181604001818152505060108160200151826040015101018160e001818152505080610100015181610160015182600001518360a0015160405160200161172994939291906138d3565b604051602081830303815290604052816060018190525060405180610100016040528060c781526020016159cb60c7913961177284600001518561012001518460600151612192565b61178f8560e001518661010001518760400151886060015161223f565b6117ad846101400151856101a0015186604001518760e001516123ed565b6040516020016117c09493929190613b75565b604051602081830303815290604052915050919050565b60608383836040516020016117ee93929190613cfd565b60405160208183030381529060405290509392505050565b6060600060016118158461243f565b01905060008167ffffffffffffffff8111156118345761183361335d565b5b6040519080825280601f01601f1916602001820160405280156118665781602001600182028036833780820191505090505b509050600082602001820190505b6001156118c9578080600190039150507f3031323334353637383961626364656600000000000000000000000000000000600a86061a8153600a85816118bd576118bc613580565b5b04945060008503611874575b819350505050919050565b60606000826118fb576040518060800160405280605b8152602001615970605b9139611915565b6040518060c00160405280609b8152602001615bee609b91395b90508787858a898b8a87604051602001611936989796959493929190613f04565b6040516020818303038152906040529150509695505050505050565b60608282604051602001611967929190614032565b604051602081830303815290604052905092915050565b606060008251036119a057604051806020016040528060008152509050611aeb565b6000604051806060016040528060408152602001615bae60409139905060006003600285516119cf9190614074565b6119d99190613a2d565b60046119e591906140a8565b67ffffffffffffffff8111156119fe576119fd61335d565b5b6040519080825280601f01601f191660200182016040528015611a305781602001600182028036833780820191505090505b50905060018201602082018586518701602081018051600082525b82841015611aa6576003840193508351603f8160121c168701518653600186019550603f81600c1c168701518653600186019550603f8160061c168701518653600186019550603f8116870151865360018601955050611a4b565b80825260038a510660018114611ac35760028114611ad657611ade565b603d6001870353603d6002870353611ade565b603d60018703535b5050505050505080925050505b919050565b600081518351148015611b10575081805190602001208380519060200120145b905092915050565b6060600083905060006002846002611b3091906140a8565b611b3a9190614074565b67ffffffffffffffff811115611b5357611b5261335d565b5b6040519080825280601f01601f191660200182016040528015611b855781602001600182028036833780820191505090505b5090507f300000000000000000000000000000000000000000000000000000000000000081600081518110611bbd57611bbc6138a4565b5b60200101907effffffffffffffffffffffffffffffffffffffffffffffffffffffffffffff1916908160001a9053507f780000000000000000000000000000000000000000000000000000000000000081600181518110611c2157611c206138a4565b5b60200101907effffffffffffffffffffffffffffffffffffffffffffffffffffffffffffff1916908160001a90535060006001856002611c6191906140a8565b611c6b9190614074565b90505b6001811115611d0b577f3031323334353637383961626364656600000000000000000000000000000000600f841660108110611cad57611cac6138a4565b5b1a60f81b828281518110611cc457611cc36138a4565b5b60200101907effffffffffffffffffffffffffffffffffffffffffffffffffffffffffffff1916908160001a905350600483901c925080611d04906140ea565b9050611c6e565b5060008214611d535784846040517fe22e27eb000000000000000000000000000000000000000000000000000000008152600401611d4a929190614113565b60405180910390fd5b809250505092915050565b60008082905060008151905060005b81811015611f59576000838281518110611d8a57611d896138a4565b5b602001015160f81c60f81b90506000602060f81b827effffffffffffffffffffffffffffffffffffffffffffffffffffffffffffff19161490506000602d60f81b837effffffffffffffffffffffffffffffffffffffffffffffffffffffffffffff19161490506000603060f81b847effffffffffffffffffffffffffffffffffffffffffffffffffffffffffffff191610158015611e4f5750603960f81b847effffffffffffffffffffffffffffffffffffffffffffffffffffffffffffff191611155b90506000604160f81b857effffffffffffffffffffffffffffffffffffffffffffffffffffffffffffff191610158015611eaf5750605a60f81b857effffffffffffffffffffffffffffffffffffffffffffffffffffffffffffff191611155b90506000606160f81b867effffffffffffffffffffffffffffffffffffffffffffffffffffffffffffff191610158015611f0f5750607a60f81b867effffffffffffffffffffffffffffffffffffffffffffffffffffffffffffff191611155b90508480611f1a5750835b80611f225750825b80611f2a5750815b80611f325750805b611f485760009950505050505050505050611f61565b505050505050806001019050611d6d565b506001925050505b919050565b606060008203611f8757604051806020016040528060008152509050611fea565b600a821015611fbf57611f9982611806565b604051602001611fa99190614162565b6040516020818303038152906040529050611fea565b611fc882611806565b604051602001611fd891906141ae565b60405160208183030381529060405290505b919050565b60606000830361201057604051806020016040528060008152509050612081565b6040518060400160405280601081526020017f68736c283233302c3231252c31312529000000000000000000000000000000008152508261205d8561271061205891906141d4565b611806565b60405160200161206f93929190614468565b60405160208183030381529060405290505b92915050565b60006060600061209686612592565b9050600060038111156120ac576120ab613551565b5b8660038111156120bf576120be613551565b5b036120fe576120e66040518060200160405280600081525085611af090919063ffffffff16565b156120f457609092506120f9565b60d092505b61212e565b600061210b82600061270d565b9050600061211a87600161270d565b9050602861212883836127d8565b01945050505b8061213884611806565b82878760405160200161214f959493929190614778565b604051602081830303815290604052915050935093915050565b60006060612187848460405180602001604052806000815250612087565b915091509250929050565b60606040518060600160405280603381526020016167ab6033913960405180610140016040528061011c8152602001615a9261011c9139604051806103a0016040528061037b8152602001615c8961037b91396040518060a001604052806075815260200161565260759139612207886127f1565b61221088612990565b87604051602001612227979695949392919061488a565b60405160208183030381529060405290509392505050565b60606122a16040518060400160405280600581526020017f2d31303025000000000000000000000000000000000000000000000000000000815250868660405160200161228d929190614933565b604051602081830303815290604052612b21565b6123016040518060400160405280600281526020017f302500000000000000000000000000000000000000000000000000000000000081525087876040516020016122ed929190614933565b604051602081830303815290604052612b21565b6123616040518060400160405280600481526020017f2d35302500000000000000000000000000000000000000000000000000000000815250868660405160200161234d929190614975565b604051602081830303815290604052612b21565b6123c16040518060400160405280600381526020017f353025000000000000000000000000000000000000000000000000000000000081525087876040516020016123ad929190614975565b604051602081830303815290604052612b21565b6040516020016123d49493929190614a1a565b6040516020818303038152906040529050949350505050565b60606123f885611806565b61240185611806565b61240a85611806565b61241385611806565b6040516020016124269493929190614cf8565b6040516020818303038152906040529050949350505050565b600080600090507a184f03e93ff9f4daa797ed6e38ed64bf6a1f010000000000000000831061249d577a184f03e93ff9f4daa797ed6e38ed64bf6a1f010000000000000000838161249357612492613580565b5b0492506040810190505b6d04ee2d6d415b85acef810000000083106124da576d04ee2d6d415b85acef810000000083816124d0576124cf613580565b5b0492506020810190505b662386f26fc10000831061250957662386f26fc1000083816124ff576124fe613580565b5b0492506010810190505b6305f5e1008310612532576305f5e100838161252857612527613580565b5b0492506008810190505b612710831061255757612710838161254d5761254c613580565b5b0492506004810190505b6064831061257a57606483816125705761256f613580565b5b0492506002810190505b600a8310612589576001810190505b80915050919050565b6060600060038111156125a8576125a7613551565b5b8260038111156125bb576125ba613551565b5b036125fd576040518060400160405280600881526020017f50726f67726573730000000000000000000000000000000000000000000000008152509050612708565b6001600381111561261157612610613551565b5b82600381111561262457612623613551565b5b03612666576040518060400160405280600681526020017f53746174757300000000000000000000000000000000000000000000000000008152509050612708565b6002600381111561267a57612679613551565b5b82600381111561268d5761268c613551565b5b036126cf576040518060400160405280600681526020017f416d6f756e7400000000000000000000000000000000000000000000000000008152509050612708565b6040518060400160405280600881526020017f4475726174696f6e00000000000000000000000000000000000000000000000081525090505b919050565b60008083519050600081036127265760009150506127d2565b60008361273457600d612737565b60105b60ff169050600080600090505b838110156127c6577f3b000000000000000000000000000000000000000000000000000000000000008782815181106127805761277f6138a4565b5b602001015160f81c60f81b7effffffffffffffffffffffffffffffffffffffffffffffffffffffffffffff1916036127b6578091505b8285019450806001019050612744565b50808202840393505050505b92915050565b60008183116127e757816127e9565b825b905092915050565b60606000826040518060400160405280601081526020017f68736c283233302c3231252c313125290000000000000000000000000000000081525060405160200161283d929190614eb3565b60405160208183030381529060405290506000836040518060400160405280601081526020017f68736c283233302c3231252c3131252900000000000000000000000000000000815250604051602001612898929190614fef565b604051602081830303815290604052905060006040518060400160405280601081526020017f68736c283233302c3231252c3131252900000000000000000000000000000000815250856040516020016128f3929190615199565b60405160208183030381529060405290506000856040518060400160405280601081526020017f68736c283233302c3231252c313125290000000000000000000000000000000081525060405160200161294e929190615328565b60405160208183030381529060405290508383838360405160200161297694939291906138d3565b604051602081830303815290604052945050505050919050565b606060006129dc6040518060400160405280600781526020017f536574746c65640000000000000000000000000000000000000000000000000081525084611af090919063ffffffff16565b80612a2b5750612a2a6040518060400160405280600881526020017f4465706c6574656400000000000000000000000000000000000000000000000081525084611af090919063ffffffff16565b5b90506040518060c0016040528060908152602001616c0f60909139604051806102c001604052806102988152602001616977610298913982612a8857604051806101c0016040528061019981526020016167de6101999139612a99565b604051806020016040528060008152505b83612abd5760405180610120016040528060f8815260200161587860f89139612ada565b604051806101e001604052806101b181526020016156c76101b191395b604051806107e001604052806107a781526020016160046107a79139604051602001612b0a9594939291906153c8565b604051602081830303815290604052915050919050565b60608282604051602001612b369291906155f9565b604051602081830303815290604052905092915050565b604051806101a00160405280600073ffffffffffffffffffffffffffffffffffffffff1681526020016060815260200160006fffffffffffffffffffffffffffffffff1681526020016000151581526020016060815260200160608152602001600073ffffffffffffffffffffffffffffffffffffffff16815260200160608152602001606081526020016060815260200160608152602001600081526020016000151581525090565b604051806101c0016040528060608152602001600081526020016000815260200160608152602001600081526020016060815260200160008152602001600081526020016060815260200160008152602001600081526020016060815260200160008152602001600081525090565b6000604051905090565b600080fd5b600080fd5b600073ffffffffffffffffffffffffffffffffffffffff82169050919050565b6000612ca582612c7a565b9050919050565b6000612cb782612c9a565b9050919050565b612cc781612cac565b8114612cd257600080fd5b50565b600081359050612ce481612cbe565b92915050565b6000819050919050565b612cfd81612cea565b8114612d0857600080fd5b50565b600081359050612d1a81612cf4565b92915050565b60008060408385031215612d3757612d36612c70565b5b6000612d4585828601612cd5565b9250506020612d5685828601612d0b565b9150509250929050565b600081519050919050565b600082825260208201905092915050565b60005b83811015612d9a578082015181840152602081019050612d7f565b60008484015250505050565b6000601f19601f8301169050919050565b6000612dc282612d60565b612dcc8185612d6b565b9350612ddc818560208601612d7c565b612de581612da6565b840191505092915050565b60006020820190508181036000830152612e0a8184612db7565b905092915050565b612e1b81612cea565b82525050565b6000602082019050612e366000830184612e12565b92915050565b6000612e4782612c9a565b9050919050565b612e5781612e3c565b8114612e6257600080fd5b50565b600081519050612e7481612e4e565b92915050565b600060208284031215612e9057612e8f612c70565b5b6000612e9e84828501612e65565b91505092915050565b60006fffffffffffffffffffffffffffffffff82169050919050565b612ecc81612ea7565b8114612ed757600080fd5b50565b600081519050612ee981612ec3565b92915050565b600060208284031215612f0557612f04612c70565b5b6000612f1384828501612eda565b91505092915050565b60058110612f2957600080fd5b50565b600081519050612f3b81612f1c565b92915050565b600060208284031215612f5757612f56612c70565b5b6000612f6584828501612f2c565b91505092915050565b600064ffffffffff82169050919050565b612f8881612f6e565b8114612f9357600080fd5b50565b600081519050612fa581612f7f565b92915050565b600060208284031215612fc157612fc0612c70565b5b6000612fcf84828501612f96565b91505092915050565b600081519050919050565b600081905092915050565b6000612ff982612fd8565b6130038185612fe3565b9350613013818560208601612d7c565b80840191505092915050565b600061302b8284612fee565b915081905092915050565b60008115159050919050565b61304b81613036565b811461305657600080fd5b50565b60008151905061306881613042565b92915050565b60006020828403121561308457613083612c70565b5b600061309284828501613059565b91505092915050565b6130a481612c9a565b81146130af57600080fd5b50565b6000815190506130c18161309b565b92915050565b6000602082840312156130dd576130dc612c70565b5b60006130eb848285016130b2565b91505092915050565b7f7b2261747472696275746573223a000000000000000000000000000000000000815250565b600081905092915050565b600061313082612d60565b61313a818561311a565b935061314a818560208601612d7c565b80840191505092915050565b7f2c226465736372697074696f6e223a2200000000000000000000000000000000815250565b7f222c2265787465726e616c5f75726c223a2268747470733a2f2f7361626c696560008201527f722e636f6d222c226e616d65223a220000000000000000000000000000000000602082015250565b60006131d8602f8361311a565b91506131e38261317c565b602f82019050919050565b7f222c22696d616765223a22646174613a696d6167652f7376672b786d6c3b626160008201527f736536342c000000000000000000000000000000000000000000000000000000602082015250565b600061324a60258361311a565b9150613255826131ee565b602582019050919050565b7f227d000000000000000000000000000000000000000000000000000000000000815250565b6000613291826130f4565b600e820191506132a18287613125565b91506132ac82613156565b6010820191506132bc8286613125565b91506132c7826131cb565b91506132d38285613125565b91506132de8261323d565b91506132ea8284613125565b91506132f582613260565b60028201915081905095945050505050565b7f646174613a6170706c69636174696f6e2f6a736f6e3b6261736536342c000000815250565b600061333882613307565b601d820191506133488284613125565b915081905092915050565b600080fd5b600080fd5b7f4e487b7100000000000000000000000000000000000000000000000000000000600052604160045260246000fd5b61339582612da6565b810181811067ffffffffffffffff821117156133b4576133b361335d565b5b80604052505050565b60006133c7612c66565b90506133d3828261338c565b919050565b600067ffffffffffffffff8211156133f3576133f261335d565b5b6133fc82612da6565b9050602081019050919050565b600061341c613417846133d8565b6133bd565b90508281526020810184848401111561343857613437613358565b5b613443848285612d7c565b509392505050565b600082601f8301126134605761345f613353565b5b8151613470848260208601613409565b91505092915050565b60006020828403121561348f5761348e612c70565b5b600082015167ffffffffffffffff8111156134ad576134ac612c75565b5b6134b98482850161344b565b91505092915050565b6000819050919050565b60006134e76134e26134dd84612c7a565b6134c2565b612c7a565b9050919050565b60006134f9826134cc565b9050919050565b600061350b826134ee565b9050919050565b61351b81613500565b82525050565b60006040820190506135366000830185613512565b81810360208301526135488184612db7565b90509392505050565b7f4e487b7100000000000000000000000000000000000000000000000000000000600052602160045260246000fd5b7f4e487b7100000000000000000000000000000000000000000000000000000000600052601260045260246000fd5b6000819050919050565b6135ca6135c582612cea565b6135af565b82525050565b60008160601b9050919050565b60006135e8826135d0565b9050919050565b60006135fa826135dd565b9050919050565b61361261360d82612c9a565b6135ef565b82525050565b600061362482866135b9565b6020820191506136348285613601565b60148201915061364482846135b9565b602082019150819050949350505050565b7f68736c2800000000000000000000000000000000000000000000000000000000815250565b7f2c00000000000000000000000000000000000000000000000000000000000000815250565b7f252c000000000000000000000000000000000000000000000000000000000000815250565b7f2529000000000000000000000000000000000000000000000000000000000000815250565b60006136f882613655565b6004820191506137088286613125565b91506137138261367b565b6001820191506137238285613125565b915061372e826136a1565b60028201915061373e8284613125565b9150613749826136c7565b600282019150819050949350505050565b600060ff82169050919050565b6137708161375a565b811461377b57600080fd5b50565b60008151905061378d81613767565b92915050565b6000602082840312156137a9576137a8612c70565b5b60006137b78482850161377e565b91505092915050565b7f2031000000000000000000000000000000000000000000000000000000000000815250565b60006137f28284613125565b91506137fd826137c0565b60028201915081905092915050565b7f203939392e393954000000000000000000000000000000000000000000000000815250565b600061383e8284613125565b91506138498261380c565b60088201915081905092915050565b7f2000000000000000000000000000000000000000000000000000000000000000815250565b600061388a8284613125565b915061389582613858565b60018201915081905092915050565b7f4e487b7100000000000000000000000000000000000000000000000000000000600052603260045260246000fd5b60006138df8287613125565b91506138eb8286613125565b91506138f78285613125565b91506139038284613125565b915081905095945050505050565b7f2031204461790000000000000000000000000000000000000000000000000000815250565b60006139438284613125565b915061394e82613911565b60068201915081905092915050565b7f2039393939204461797300000000000000000000000000000000000000000000815250565b600061398f8284613125565b915061399a8261395d565b600a8201915081905092915050565b60006139b58285613125565b91506139c18284613125565b91508190509392505050565b60006139d882612cea565b91506139e383612cea565b9250826139f3576139f2613580565b5b828206905092915050565b7f4e487b7100000000000000000000000000000000000000000000000000000000600052601160045260246000fd5b6000613a3882612cea565b9150613a4383612cea565b925082613a5357613a52613580565b5b828204905092915050565b7f2500000000000000000000000000000000000000000000000000000000000000815250565b6000613a908285613125565b9150613a9c8284613125565b9150613aa782613a5e565b6001820191508190509392505050565b7f3c73766720786d6c6e733d22687474703a2f2f7777772e77332e6f72672f323060008201527f30302f737667222077696474683d223130303022206865696768743d2231303060208201527f30222076696577426f783d2230203020313030302031303030223e0000000000604082015250565b6000613b39605b8361311a565b9150613b4482613ab7565b605b82019050919050565b7f3c2f7376673e0000000000000000000000000000000000000000000000000000815250565b6000613b8082613b2c565b9150613b8c8287613125565b9150613b988286613125565b9150613ba48285613125565b9150613bb08284613125565b9150613bbb82613b4f565b60068201915081905095945050505050565b7f5b7b2274726169745f74797065223a224173736574222c2276616c7565223a22815250565b7f227d2c7b2274726169745f74797065223a2253656e646572222c2276616c756560008201527f223a220000000000000000000000000000000000000000000000000000000000602082015250565b6000613c4f60238361311a565b9150613c5a82613bf3565b602382019050919050565b7f227d2c7b2274726169745f74797065223a22537461747573222c2276616c756560008201527f223a220000000000000000000000000000000000000000000000000000000000602082015250565b6000613cc160238361311a565b9150613ccc82613c65565b602382019050919050565b7f227d5d0000000000000000000000000000000000000000000000000000000000815250565b6000613d0882613bcd565b602082019150613d188286613125565b9150613d2382613c42565b9150613d2f8285613125565b9150613d3a82613cb4565b9150613d468284613125565b9150613d5182613cd7565b600382019150819050949350505050565b7f54686973204e465420726570726573656e74732061207061796d656e7420737460008201527f7265616d20696e2061205361626c696572205632200000000000000000000000602082015250565b6000613dbe60358361311a565b9150613dc982613d62565b603582019050919050565b7f20636f6e74726163742e20546865206f776e6572206f662074686973204e465460008201527f2063616e207769746864726177207468652073747265616d656420617373657460208201527f732c207768696368206172652064656e6f6d696e6174656420696e2000000000604082015250565b6000613e56605c8361311a565b9150613e6182613dd4565b605c82019050919050565b7f2e5c6e5c6e2d2053747265616d2049443a200000000000000000000000000000815250565b7f5c6e2d2000000000000000000000000000000000000000000000000000000000815250565b7f20416464726573733a2000000000000000000000000000000000000000000000815250565b7f5c6e5c6e00000000000000000000000000000000000000000000000000000000815250565b6000613f0f82613db1565b9150613f1b828b613125565b9150613f2682613e49565b9150613f32828a613125565b9150613f3d82613e6c565b601282019150613f4d8289613125565b9150613f5882613e92565b600482019150613f688288613125565b9150613f7382613eb8565b600a82019150613f838287613125565b9150613f8e82613e92565b600482019150613f9e8286613125565b9150613fa982613eb8565b600a82019150613fb98285613125565b9150613fc482613ede565b600482019150613fd48284613125565b91508190509998505050505050505050565b7f5361626c69657220563220000000000000000000000000000000000000000000815250565b7f2023000000000000000000000000000000000000000000000000000000000000815250565b600061403d82613fe6565b600b8201915061404d8285613125565b91506140588261400c565b6002820191506140688284613125565b91508190509392505050565b600061407f82612cea565b915061408a83612cea565b92508282019050808211156140a2576140a16139fe565b5b92915050565b60006140b382612cea565b91506140be83612cea565b92508282026140cc81612cea565b915082820484148315176140e3576140e26139fe565b5b5092915050565b60006140f582612cea565b915060008203614108576141076139fe565b5b600182039050919050565b60006040820190506141286000830185612e12565b6141356020830184612e12565b9392505050565b7f2e30000000000000000000000000000000000000000000000000000000000000815250565b600061416d8261413c565b60028201915061417d8284613125565b915081905092915050565b7f2e00000000000000000000000000000000000000000000000000000000000000815250565b60006141b982614188565b6001820191506141c98284613125565b915081905092915050565b60006141df82612cea565b91506141ea83612cea565b9250828203905081811115614202576142016139fe565b5b92915050565b7f3c672066696c6c3d226e6f6e65223e0000000000000000000000000000000000815250565b7f3c636972636c652063783d22313636222063793d2235302220723d223232222060008201527f7374726f6b653d22000000000000000000000000000000000000000000000000602082015250565b600061428a60288361311a565b91506142958261422e565b602882019050919050565b7f22207374726f6b652d77696474683d223130222f3e0000000000000000000000815250565b7f3c636972636c652063783d22313636222063793d2235302220706174684c656e60008201527f6774683d2231303030302220723d22323222207374726f6b653d220000000000602082015250565b6000614322603b8361311a565b915061432d826142c6565b603b82019050919050565b7f22207374726f6b652d6461736861727261793d22313030303022207374726f6b60008201527f652d646173686f66667365743d22000000000000000000000000000000000000602082015250565b6000614394602e8361311a565b915061439f82614338565b602e82019050919050565b7f22207374726f6b652d6c696e656361703d22726f756e6422207374726f6b652d60008201527f77696474683d223522207472616e73666f726d3d22726f74617465282d39302960208201527f22207472616e73666f726d2d6f726967696e3d22313636203530222f3e000000604082015250565b600061442c605d8361311a565b9150614437826143aa565b605d82019050919050565b7f3c2f673e00000000000000000000000000000000000000000000000000000000815250565b600061447382614208565b600f820191506144828261427d565b915061448e8286613125565b9150614499826142a0565b6015820191506144a882614315565b91506144b48285613125565b91506144bf82614387565b91506144cb8284613125565b91506144d68261441f565b91506144e182614442565b600482019150819050949350505050565b7f3c672069643d2200000000000000000000000000000000000000000000000000815250565b7f222066696c6c3d2223666666223e000000000000000000000000000000000000815250565b7f3c726563742077696474683d2200000000000000000000000000000000000000815250565b7f22206865696768743d22313030222066696c6c2d6f7061636974793d222e303360008201527f222072783d223135222072793d22313522207374726f6b653d2223666666222060208201527f7374726f6b652d6f7061636974793d222e3122207374726f6b652d776964746860408201527f3d2234222f3e0000000000000000000000000000000000000000000000000000606082015250565b600061460c60668361311a565b915061461782614564565b606682019050919050565b7f3c7465787420783d2232302220793d2233342220666f6e742d66616d696c793d60008201527f2227436f7572696572204e6577272c417269616c2c6d6f6e6f7370616365222060208201527f666f6e742d73697a653d2232327078223e000000000000000000000000000000604082015250565b60006146a460518361311a565b91506146af82614622565b605182019050919050565b7f3c2f746578743e00000000000000000000000000000000000000000000000000815250565b7f3c7465787420783d2232302220793d2237322220666f6e742d66616d696c793d60008201527f2227436f7572696572204e6577272c417269616c2c6d6f6e6f7370616365222060208201527f666f6e742d73697a653d2232367078223e000000000000000000000000000000604082015250565b600061476260518361311a565b915061476d826146e0565b605182019050919050565b6000614783826144f2565b6007820191506147938288613125565b915061479e82614518565b600e820191506147ad8261453e565b600d820191506147bd8287613125565b91506147c8826145ff565b91506147d382614697565b91506147df8286613125565b91506147ea826146ba565b6007820191506147f982614755565b91506148058285613125565b9150614810826146ba565b6007820191506148208284613125565b915061482b82614442565b6004820191508190509695505050505050565b7f3c646566733e0000000000000000000000000000000000000000000000000000815250565b7f3c2f646566733e00000000000000000000000000000000000000000000000000815250565b60006148958261483e565b6006820191506148a5828a613125565b91506148b18289613125565b91506148bd8288613125565b91506148c98287613125565b91506148d58286613125565b91506148e18285613125565b91506148ed8284613125565b91506148f882614864565b60078201915081905098975050505050505050565b7f20e280a220000000000000000000000000000000000000000000000000000000815250565b600061493f8285613125565b915061494a8261490d565b60058201915061495982613fe6565b600b820191506149698284613125565b91508190509392505050565b60006149818285613125565b915061498c8261490d565b60058201915061499c8284613125565b91508190509392505050565b7f3c7465787420746578742d72656e646572696e673d226f7074696d697a65537060008201527f656564223e000000000000000000000000000000000000000000000000000000602082015250565b6000614a0460258361311a565b9150614a0f826149a8565b602582019050919050565b6000614a25826149f7565b9150614a318287613125565b9150614a3d8286613125565b9150614a498285613125565b9150614a558284613125565b9150614a60826146ba565b60078201915081905095945050505050565b7f3c75736520687265663d2223476c6f77222066696c6c2d6f7061636974793d2260008201527f2e39222f3e000000000000000000000000000000000000000000000000000000602082015250565b6000614ace60258361311a565b9150614ad982614a72565b602582019050919050565b7f3c75736520687265663d2223476c6f772220783d22313030302220793d22313060008201527f3030222066696c6c2d6f7061636974793d222e39222f3e000000000000000000602082015250565b6000614b4060378361311a565b9150614b4b82614ae4565b603782019050919050565b7f3c75736520687265663d22234c6f676f2220783d223137302220793d2231373060008201527f22207472616e73666f726d3d227363616c65282e3629222f3e3c75736520687260208201527f65663d2223486f7572676c6173732220783d223135302220793d22393022207460408201527f72616e73666f726d3d22726f746174652831302922207472616e73666f726d2d60608201527f6f726967696e3d2235303020353030222f3e0000000000000000000000000000608082015250565b6000614c2460928361311a565b9150614c2f82614b56565b609282019050919050565b7f3c75736520687265663d222350726f67726573732220783d2200000000000000815250565b7f2220793d22373930222f3e000000000000000000000000000000000000000000815250565b7f3c75736520687265663d22235374617475732220783d22000000000000000000815250565b7f3c75736520687265663d2223416d6f756e742220783d22000000000000000000815250565b7f3c75736520687265663d22234475726174696f6e2220783d2200000000000000815250565b6000614d0382614ac1565b9150614d0e82614b33565b9150614d1982614c17565b9150614d2482614c3a565b601982019150614d348287613125565b9150614d3f82614c60565b600b82019150614d4e82614c86565b601782019150614d5e8286613125565b9150614d6982614c60565b600b82019150614d7882614cac565b601782019150614d888285613125565b9150614d9382614c60565b600b82019150614da282614cd2565b601982019150614db28284613125565b9150614dbd82614c60565b600b8201915081905095945050505050565b7f3c72616469616c4772616469656e742069643d2252616469616c476c6f77223e815250565b7f3c73746f70206f66667365743d223025222073746f702d636f6c6f723d220000815250565b7f222073746f702d6f7061636974793d222e36222f3e0000000000000000000000815250565b7f3c73746f70206f66667365743d2231303025222073746f702d636f6c6f723d22815250565b7f222073746f702d6f7061636974793d2230222f3e000000000000000000000000815250565b7f3c2f72616469616c4772616469656e743e000000000000000000000000000000815250565b6000614ebe82614dcf565b602082019150614ecd82614df5565b601e82019150614edd8285613125565b9150614ee882614e1b565b601582019150614ef782614e41565b602082019150614f078284613125565b9150614f1282614e67565b601482019150614f2182614e8d565b6011820191508190509392505050565b7f3c6c696e6561724772616469656e742069643d2253616e64546f70222078313d60008201527f223025222079313d223025223e00000000000000000000000000000000000000602082015250565b6000614f8d602d8361311a565b9150614f9882614f31565b602d82019050919050565b7f222f3e0000000000000000000000000000000000000000000000000000000000815250565b7f3c2f6c696e6561724772616469656e743e000000000000000000000000000000815250565b6000614ffa82614f80565b915061500582614df5565b601e820191506150158285613125565b915061502082614fa3565b60038201915061502f82614e41565b60208201915061503f8284613125565b915061504a82614fa3565b60038201915061505982614fc9565b6011820191508190509392505050565b7f3c6c696e6561724772616469656e742069643d2253616e64426f74746f6d222060008201527f78313d2231303025222079313d2231303025223e000000000000000000000000602082015250565b60006150c560348361311a565b91506150d082615069565b603482019050919050565b7f3c73746f70206f66667365743d22313025222073746f702d636f6c6f723d2200815250565b7f3c616e696d617465206174747269627574654e616d653d22783122206475723d60008201527f2236732220726570656174436f756e743d22696e646566696e6974652220766160208201527f6c7565733d223330253b3630253b313230253b3630253b3330253b222f3e0000604082015250565b6000615183605e8361311a565b915061518e82615101565b605e82019050919050565b60006151a4826150b8565b91506151af826150db565b601f820191506151bf8285613125565b91506151ca82614fa3565b6003820191506151d982614e41565b6020820191506151e98284613125565b91506151f482614fa3565b60038201915061520382615176565b915061520e82614fc9565b6011820191508190509392505050565b7f3c6c696e6561724772616469656e742069643d22486f7572676c61737353747260008201527f6f6b6522206772616469656e745472616e73666f726d3d22726f74617465283960208201527f302922206772616469656e74556e6974733d227573657253706163654f6e557360408201527f65223e0000000000000000000000000000000000000000000000000000000000606082015250565b60006152c660638361311a565b91506152d18261521e565b606382019050919050565b7f3c73746f70206f66667365743d22353025222073746f702d636f6c6f723d2200815250565b7f3c73746f70206f66667365743d22383025222073746f702d636f6c6f723d2200815250565b6000615333826152b9565b915061533e826152dc565b601f8201915061534e8285613125565b915061535982614fa3565b60038201915061536882615302565b601f820191506153788284613125565b915061538382614fa3565b60038201915061539282614fc9565b6011820191508190509392505050565b7f3c672069643d22486f7572676c617373223e0000000000000000000000000000815250565b60006153d3826153a2565b6012820191506153e38288613125565b91506153ef8287613125565b91506153fb8286613125565b91506154078285613125565b91506154138284613125565b915061541e82614442565b6004820191508190509695505050505050565b7f3c74657874506174682073746172744f66667365743d22000000000000000000815250565b7f2220687265663d2223466c6f6174696e6754657874222066696c6c3d2223666660008201527f662220666f6e742d66616d696c793d2227436f7572696572204e6577272c417260208201527f69616c2c6d6f6e6f7370616365222066696c6c2d6f7061636974793d222e382260408201527f20666f6e742d73697a653d2232367078223e0000000000000000000000000000606082015250565b60006154ff60728361311a565b915061550a82615457565b607282019050919050565b7f3c616e696d6174652061646469746976653d2273756d2220617474726962757460008201527f654e616d653d2273746172744f66667365742220626567696e3d22307322206460208201527f75723d22353073222066726f6d3d2230252220726570656174436f756e743d2260408201527f696e646566696e6974652220746f3d2231303025222f3e000000000000000000606082015250565b60006155bd60778361311a565b91506155c882615515565b607782019050919050565b7f3c2f74657874506174683e000000000000000000000000000000000000000000815250565b600061560482615431565b6017820191506156148285613125565b915061561f826154f2565b915061562a826155b0565b91506156368284613125565b9150615641826155d3565b600b82019150819050939250505056fe3c706174682069643d22466c6f6174696e6754657874222066696c6c3d226e6f6e652220643d224d313235203435683735307338302030203830203830763735307330203830202d3830203830682d373530732d38302030202d3830202d3830762d3735307330202d3830203830202d3830222f3e3c7061746820643d226d3438312e34362c3438312e35347638312e3031632d322e33352e37372d342e38322c312e35312d372e33392c322e32332d33302e332c382e35342d37342e36352c31332e39322d3132342e30362c31332e39322d35332e362c302d3130312e32342d362e33332d3133312e34372d31362e3136762d38316c34362e332d34362e3331683137302e33336c34362e32392c34362e33315a222066696c6c3d2275726c282353616e64426f74746f6d29222f3e3c7061746820643d226d3433352e31372c3433352e323363302c312e31372d2e34362c322e33322d312e33332c332e34342d372e31312c392e30382d34312e39332c31352e39382d38332e38312c31352e3938732d37362e372d362e392d38332e38322d31352e3938632d2e38372d312e31322d312e33332d322e32372d312e33332d332e3434762d2e30346c382e33342d382e33352e30312d2e30316331332e37322d362e35312c34322e39352d31312e30322c37362e382d31312e30327336322e39372c342e34392c37362e37322c31316c382e34322c382e34325a222066696c6c3d2275726c282353616e64546f7029222f3e3c7061746820643d226d3438312e34362c3530342e3130317635382e343439632d322e33352e37372d342e38322c312e35312d372e33392c322e32332d33302e332c382e35342d37342e36352c31332e39322d3132342e30362c31332e39322d35332e362c302d3130312e32342d362e33332d3133312e34372d31362e3136762d35382e343339683236322e39325a222066696c6c3d2275726c282353616e64426f74746f6d29222f3e3c656c6c697073652063783d22333530222063793d223530342e313031222072783d223133312e343632222072793d2232382e313038222066696c6c3d2275726c282353616e64546f7029222f3ee29d95494e464f3a2054686973204e4654206973206e6f6e2d7472616e7366657261626c652e2049742063616e6e6f7420626520736f6c64206f72207472616e7366657272656420746f20616e6f74686572206163636f756e742e3c726563742077696474683d223130302522206865696768743d2231303025222066696c7465723d2275726c28234e6f69736529222f3e3c7265637420783d2237302220793d223730222077696474683d2238363022206865696768743d22383630222066696c6c3d2223666666222066696c6c2d6f7061636974793d222e3033222072783d223435222072793d22343522207374726f6b653d222366666622207374726f6b652d6f7061636974793d222e3122207374726f6b652d77696474683d2234222f3e3c66696c7465722069643d224e6f697365223e3c6665466c6f6f6420783d22302220793d2230222077696474683d223130302522206865696768743d22313030252220666c6f6f642d636f6c6f723d2268736c283233302c3231252c313125292220666c6f6f642d6f7061636974793d22312220726573756c743d22666c6f6f6446696c6c222f3e3c666554757262756c656e636520626173654672657175656e63793d222e3422206e756d4f6374617665733d22332220726573756c743d224e6f6973652220747970653d226672616374616c4e6f697365222f3e3c6665426c656e6420696e3d224e6f6973652220696e323d22666c6f6f6446696c6c22206d6f64653d22736f66742d6c69676874222f3e3c2f66696c7465723e4142434445464748494a4b4c4d4e4f505152535455565758595a6162636465666768696a6b6c6d6e6f707172737475767778797a303132333435363738392b2fe29aa0efb88f205741524e494e473a205472616e7366657272696e6720746865204e4654206d616b657320746865206e6577206f776e65722074686520726563697069656e74206f66207468652073747265616d2e205468652066756e647320617265206e6f74206175746f6d61746963616c6c792077697468647261776e20666f72207468652070726576696f757320726563697069656e742e3c706174682069643d224c6f676f222066696c6c3d2223666666222066696c6c2d6f7061636974793d222e312220643d226d3133332e3535392c3132342e303334632d2e3031332c322e3431322d312e3035392c342e3834382d322e3932332c362e3430322d322e3535382c312e3831392d352e3136382c332e3433392d372e3838382c342e3939362d31342e34342c382e3236322d33312e3034372c31322e3536352d34372e3637342c31322e3536392d382e3835382e3033362d31372e3833382d312e3237322d32362e3332382d332e3636332d392e3830362d322e3736362d31392e3038372d372e3131332d32372e3536322d31322e3737382d31332e3834322d382e3032352c392e3436382d32382e3630362c31362e3135332d33352e323635683063322e3033352d312e3833382c342e3235322d332e3534362c362e3436332d352e323234683063362e3432392d352e3635352c31362e3231382d322e3833352c32302e3335382c342e31372c342e3134332c352e3035372c382e3831362c392e3634392c31332e39322c31332e373334682e30333763352e3733362c362e3436312c31352e3335372d322e3235332c392e33382d382e34382c302c302d332e3531352d332e3531352d332e3531352d332e3531352d31312e34392d31312e3437382d35322e3635362d35322e3636342d36342e3833372d36342e3833376c2e3034392d2e303337632d312e3732352d312e3630362d322e3731392d332e3834372d322e3735312d362e3230346830632d2e3034362d322e3337352c312e3036322d342e3538322c322e3732362d362e32323968306c2e3138352d2e3134386830632e3039392d2e3036322c2e3232322d2e3134382c2e33372d2e323539683063322e30362d312e3336322c332e3935312d322e3632312c362e3034342d332e3834324335372e3736332d332e3437332c39372e37362d322e3334312c3132382e3633372c31382e3333326331362e3637312c392e3934362d32362e3334342c35342e3831332d33382e3635312c34302e3139392d362e3239392d362e3039362d31382e3036332d31372e3734332d31392e3636382d31382e3831312d362e3031362d342e3034372d31332e3036312c342e3737362d372e3735322c392e3735316c36382e3235342c36382e33373163312e3732342c312e3630312c322e3731342c332e38342c322e3733382c362e3139325a222f3e3c672066696c6c3d226e6f6e6522207374726f6b653d2275726c2823486f7572676c6173735374726f6b652922207374726f6b652d6c696e656361703d22726f756e6422207374726f6b652d6d697465726c696d69743d22313022207374726f6b652d77696474683d2234223e3c7061746820643d226d3536352e3634312c3130372e323863302c392e3533372d352e35362c31382e3632392d31352e3637362c32362e393733682d2e303233632d392e3230342c372e3539362d32322e3139342c31342e3536322d33382e3139372c32302e3539322d33392e3530342c31342e3933362d39372e3332352c32342e3335352d3136312e3733332c32342e3335352d39302e34382c302d3136372e3934382d31382e3538322d3139392e3935332d34342e393438682d2e303233632d31302e3131352d382e3334342d31352e3637362d31372e3433372d31352e3637362d32362e3937332c302d33392e3733352c39362e3535342d37312e3932312c3231352e3635322d37312e393231733231352e3632392c33322e3138352c3231352e3632392c37312e3932315a222f3e3c7061746820643d226d3133342e33362c3136312e32303363302c33392e3733352c39362e3535342c37312e3932312c3231352e3635322c37312e393231733231352e3632392d33322e3138362c3231352e3632392d37312e393231222f3e3c6c696e652078313d223133342e3336222079313d223136312e323033222078323d223133342e3336222079323d223130372e3238222f3e3c6c696e652078313d223536352e3634222079313d223136312e323033222078323d223536352e3634222079323d223130372e3238222f3e3c6c696e652078313d223138342e353834222079313d223230362e383233222078323d223138342e353835222079323d223533372e353739222f3e3c6c696e652078313d223231382e313831222079313d223231382e313138222078323d223231382e313831222079323d223536322e353337222f3e3c6c696e652078313d223438312e383138222079313d223231382e313432222078323d223438312e383139222079323d223536322e343238222f3e3c6c696e652078313d223531352e343135222079313d223230372e333532222078323d223531352e343136222079323d223533372e353739222f3e3c7061746820643d226d3138342e35382c3533372e353863302c352e34352c342e32372c31302e36352c31322e30332c31352e3432682e303263352e35312c332e33392c31322e37392c362e35352c32312e35352c392e34322c33302e32312c392e392c37382e30322c31362e32382c3133312e38332c31362e32382c34392e34312c302c39332e37362d352e33382c3132342e30362d31332e39322c322e372d2e37362c352e32392d312e35342c372e37352d322e33352c382e37372d322e38372c31362e30352d362e30342c32312e35362d392e3433683063372e37362d342e37372c31322e30342d392e39372c31322e30342d31352e3432222f3e3c7061746820643d226d3138342e3538322c3439322e363536632d33312e3335342c31322e3438352d35302e3232332c32382e35382d35302e3232332c34362e3134322c302c392e3533362c352e3536342c31382e3632372c31352e3637372c32362e393639682e30323263382e3530332c372e3030352c32302e3231332c31332e3436332c33342e3532342c31392e3135392c392e3939392c332e3939312c32312e3236392c372e3630392c33332e3539372c31302e3738382c33362e34352c392e3430372c38322e3138312c31352e3030322c3133312e3833352c31352e3030327339352e3336332d352e3539352c3133312e3830372d31352e3030326331302e3834372d322e37392c32302e3836372d352e3932362c32392e3932342d392e3334392c312e3234342d2e3436372c322e3437332d2e3934322c332e3637332d312e3432342c31342e3332362d352e3639362c32362e3033352d31322e3136312c33342e3532342d31392e313733682e3032326331302e3131342d382e3334322c31352e3637372d31372e3433332c31352e3637372d32362e3936392c302d31372e3536322d31382e3836392d33332e3636352d35302e3232332d34362e3135222f3e3c7061746820643d226d3133342e33362c3539322e373263302c33392e3733352c39362e3535342c37312e3932312c3231352e3635322c37312e393231733231352e3632392d33322e3138362c3231352e3632392d37312e393231222f3e3c6c696e652078313d223133342e3336222079313d223539322e3732222078323d223133342e3336222079323d223533382e373937222f3e3c6c696e652078313d223536352e3634222079313d223539322e3732222078323d223536352e3634222079323d223533382e373937222f3e3c706f6c796c696e6520706f696e74733d223438312e383232203438312e393031203438312e373938203438312e383737203438312e373735203438312e383534203335302e303135203335302e303236203231382e313835203231382e313239222f3e3c706f6c796c696e6520706f696e74733d223231382e313835203438312e393031203231382e323331203438312e383534203335302e303135203335302e303236203438312e383232203231382e313532222f3e3c2f673e3c636972636c652069643d22476c6f772220723d22353030222066696c6c3d2275726c282352616469616c476c6f7729222f3e3c706f6c79676f6e20706f696e74733d22333530203335302e303236203431352e3033203238342e39373820323835203238342e39373820333530203335302e303236222066696c6c3d2275726c282353616e64426f74746f6d29222f3e3c7061746820643d226d3431362e3334312c3238312e39373563302c2e3931342d2e3335342c312e3830392d312e3033352c322e36382d352e3534322c372e3037362d33322e3636312c31322e34352d36352e32382c31322e34352d33322e3632342c302d35392e3733382d352e3337342d36352e32382d31322e34352d2e3638312d2e3837322d312e3033352d312e3736372d312e3033352d322e36382c302d2e3931342e3335342d312e3830382c312e3033352d322e3637362c352e3534322d372e3037362c33322e3635362d31322e34352c36352e32382d31322e34352c33322e3631392c302c35392e3733382c352e3337342c36352e32382c31322e34352e3638312e3836372c312e3033352c312e3736322c312e3033352c322e3637365a222066696c6c3d2275726c282353616e64546f7029222f3e3c7061746820643d226d3536362c3136312e323031762d35332e39323463302d31392e3338322d32322e3531332d33372e3536332d36332e3339382d35312e3139382d34302e3735362d31332e3539322d39342e3934362d32312e3037392d3135322e3538372d32312e303739732d3131312e3833382c372e3438372d3135322e3630322c32312e303739632d34302e3839332c31332e3633362d36332e3431332c33312e3831362d36332e3431332c35312e3139387635332e39323463302c31372e3138312c31372e3730342c33332e3432372c35302e3232332c34362e333934763238342e383039632d33322e3531392c31322e39362d35302e3232332c32392e3230362d35302e3232332c34362e3339347635332e39323463302c31392e3338322c32322e35322c33372e3536332c36332e3431332c35312e3139382c34302e3736332c31332e3539322c39342e3935342c32312e3037392c3135322e3630322c32312e303739733131312e3833312d372e3438372c3135322e3538372d32312e3037396334302e3838362d31332e3633362c36332e3339382d33312e3831362c36332e3339382d35312e313938762d35332e39323463302d31372e3139362d31372e3730342d33332e3433352d35302e3232332d34362e343031563230372e3630336333322e3531392d31322e3936372c35302e3232332d32392e3230362c35302e3232332d34362e3430315a6d2d3334372e3436322c35372e3739336c3133302e3935392c3133312e3032372d3133302e3935392c3133312e303133563231382e3939345a6d3236322e3932342e303232763236322e3031386c2d3133302e3933372d3133312e3030362c3133302e3933372d3133312e3031335a222066696c6c3d2223313631383232223e3c2f706174683e3c7061746820643d224d2035302c3336302061203330302c333030203020312c31203630302c302061203330302c333030203020312c31202d3630302c30222066696c6c3d2223666666222066696c6c2d6f7061636974793d222e303222207374726f6b653d2275726c2823486f7572676c6173735374726f6b652922207374726f6b652d77696474683d2234222f3ea264697066735822122020e0fad660c2d9a128e7123c7053c196fe5c86216d4c05cebf4a8d7abbab14d364736f6c634300081a0033",
  "linkReferences": {},
  "deployedLinkReferences": {}
}